{"abi":[{"type":"constructor","inputs":[{"name":"_kineticHook","type":"address","internalType":"address"},{"name":"_destinationChainId","type":"uint256","internalType":"uint256"},{"name":"_yieldThreshold","type":"uint256","internalType":"uint256"},{"name":"_minConfidenceScore","type":"uint256","internalType":"uint256"},{"name":"_localPool","type":"address","internalType":"address"},{"name":"_localPoolFee","type":"uint256","internalType":"uint256"}],"stateMutability":"payable"},{"type":"function","name":"CALLBACK_GAS_LIMIT","inputs":[],"outputs":[{"name":"","type":"uint64","internalType":"uint64"}],"stateMutability":"view"},{"type":"function","name":"REACTIVE_IGNORE","inputs":[],"outputs":[{"name":"","type":"uint256","internalType":"uint256"}],"stateMutability":"view"},{"type":"function","name":"UNISWAP_V4_SWAP_TOPIC_0","inputs":[],"outputs":[{"name":"","type":"uint256","internalType":"uint256"}],"stateMutability":"view"},{"type":"function","name":"aiModelHash","inputs":[],"outputs":[{"name":"","type":"bytes32","internalType":"bytes32"}],"stateMutability":"view"},{"type":"function","name":"cumulativeVolume","inputs":[{"name":"","type":"address","internalType":"address"}],"outputs":[{"name":"","type":"uint256","internalType":"uint256"}],"stateMutability":"view"},{"type":"function","name":"destinationChainId","inputs":[],"outputs":[{"name":"","type":"uint256","internalType":"uint256"}],"stateMutability":"view"},{"type":"function","name":"kineticHook","inputs":[],"outputs":[{"name":"","type":"address","internalType":"address"}],"stateMutability":"view"},{"type":"function","name":"lastYieldVelocity","inputs":[{"name":"","type":"address","internalType":"address"}],"outputs":[{"name":"","type":"uint256","internalType":"uint256"}],"stateMutability":"view"},{"type":"function","name":"localCumulativeVolume","inputs":[],"outputs":[{"name":"","type":"uint256","internalType":"uint256"}],"stateMutability":"view"},{"type":"function","name":"localPool","inputs":[],"outputs":[{"name":"","type":"address","internalType":"address"}],"stateMutability":"view"},{"type":"function","name":"localPoolFee","inputs":[],"outputs":[{"name":"","type":"uint256","internalType":"uint256"}],"stateMutability":"view"},{"type":"function","name":"localSwapCount","inputs":[],"outputs":[{"name":"","type":"uint256","internalType":"uint256"}],"stateMutability":"view"},{"type":"function","name":"minConfidenceScore","inputs":[],"outputs":[{"name":"","type":"uint256","internalType":"uint256"}],"stateMutability":"view"},{"type":"function","name":"owner","inputs":[],"outputs":[{"name":"","type":"address","internalType":"address"}],"stateMutability":"view"},{"type":"function","name":"poolChainId","inputs":[{"name":"","type":"address","internalType":"address"}],"outputs":[{"name":"","type":"uint256","internalType":"uint256"}],"stateMutability":"view"},{"type":"function","name":"poolFee","inputs":[{"name":"","type":"address","internalType":"address"}],"outputs":[{"name":"","type":"uint256","internalType":"uint256"}],"stateMutability":"view"},{"type":"function","name":"react","inputs":[{"name":"log","type":"tuple","internalType":"struct IReactive.LogRecord","components":[{"name":"chain_id","type":"uint256","internalType":"uint256"},{"name":"_contract","type":"address","internalType":"address"},{"name":"topic_0","type":"uint256","internalType":"uint256"},{"name":"topic_1","type":"uint256","internalType":"uint256"},{"name":"topic_2","type":"uint256","internalType":"uint256"},{"name":"topic_3","type":"uint256","internalType":"uint256"},{"name":"data","type":"bytes","internalType":"bytes"},{"name":"block_number","type":"uint256","internalType":"uint256"},{"name":"op_code","type":"uint256","internalType":"uint256"},{"name":"block_hash","type":"uint256","internalType":"uint256"},{"name":"tx_hash","type":"uint256","internalType":"uint256"},{"name":"log_index","type":"uint256","internalType":"uint256"}]}],"outputs":[],"stateMutability":"nonpayable"},{"type":"function","name":"swapCount","inputs":[{"name":"","type":"address","internalType":"address"}],"outputs":[{"name":"","type":"uint256","internalType":"uint256"}],"stateMutability":"view"},{"type":"function","name":"transferOwnership","inputs":[{"name":"_newOwner","type":"address","internalType":"address"}],"outputs":[],"stateMutability":"nonpayable"},{"type":"function","name":"updateKineticHook","inputs":[{"name":"_newHook","type":"address","internalType":"address"}],"outputs":[],"stateMutability":"nonpayable"},{"type":"function","name":"updateLocalPool","inputs":[{"name":"_newLocalPool","type":"address","internalType":"address"},{"name":"_newLocalFee","type":"uint256","internalType":"uint256"}],"outputs":[],"stateMutability":"nonpayable"},{"type":"function","name":"updateStrategy","inputs":[{"name":"_newYieldThreshold","type":"uint256","internalType":"uint256"},{"name":"_newMinConfidenceScore","type":"uint256","internalType":"uint256"},{"name":"_aiModelHash","type":"bytes32","internalType":"bytes32"}],"outputs":[],"stateMutability":"nonpayable"},{"type":"function","name":"wouldTriggerRebalance","inputs":[{"name":"pool","type":"address","internalType":"address"},{"name":"currentLiquidity","type":"uint128","internalType":"uint128"}],"outputs":[{"name":"","type":"bool","internalType":"bool"}],"stateMutability":"view"},{"type":"function","name":"yieldThreshold","inputs":[],"outputs":[{"name":"","type":"uint256","internalType":"uint256"}],"stateMutability":"view"},{"type":"function","name":"yieldVelocityComparison","inputs":[{"name":"pool","type":"address","internalType":"address"},{"name":"currentLiquidity","type":"uint128","internalType":"uint128"}],"outputs":[{"name":"sourceYV","type":"uint256","internalType":"uint256"},{"name":"localYV","type":"uint256","internalType":"uint256"},{"name":"ratioBps","type":"uint256","internalType":"uint256"}],"stateMutability":"view"},{"type":"event","name":"Callback","inputs":[{"name":"chain_id","type":"uint256","indexed":true,"internalType":"uint256"},{"name":"_contract","type":"address","indexed":true,"internalType":"address"},{"name":"gas_limit","type":"uint64","indexed":true,"internalType":"uint64"},{"name":"payload","type":"bytes","indexed":false,"internalType":"bytes"}],"anonymous":false},{"type":"event","name":"LocalPoolUpdated","inputs":[{"name":"newLocalPool","type":"address","indexed":false,"internalType":"address"},{"name":"localFee","type":"uint256","indexed":false,"internalType":"uint256"}],"anonymous":false},{"type":"event","name":"RebalanceDispatched","inputs":[{"name":"sourceChainId","type":"uint256","indexed":true,"internalType":"uint256"},{"name":"sourcePool","type":"address","indexed":true,"internalType":"address"},{"name":"sourceYieldVelocity","type":"uint256","indexed":false,"internalType":"uint256"},{"name":"localYieldVelocity","type":"uint256","indexed":false,"internalType":"uint256"}],"anonymous":false},{"type":"event","name":"StrategyUpdated","inputs":[{"name":"newYieldThreshold","type":"uint256","indexed":false,"internalType":"uint256"},{"name":"newMinConfidenceScore","type":"uint256","indexed":false,"internalType":"uint256"},{"name":"aiModelHash","type":"bytes32","indexed":false,"internalType":"bytes32"}],"anonymous":false},{"type":"event","name":"SwapObserved","inputs":[{"name":"chainId","type":"uint256","indexed":true,"internalType":"uint256"},{"name":"poolAddress","type":"address","indexed":true,"internalType":"address"},{"name":"volume","type":"uint256","indexed":false,"internalType":"uint256"},{"name":"computedYieldVelocity","type":"uint256","indexed":false,"internalType":"uint256"}],"anonymous":false},{"type":"error","name":"InvalidParameters","inputs":[]},{"type":"error","name":"Unauthorized","inputs":[]},{"type":"error","name":"ZeroAddress","inputs":[]}],"bytecode":{"object":"0x6080604052604051612405380380612405833981810160405281019061002591906103eb565b5f73ffffffffffffffffffffffffffffffffffffffff168673ffffffffffffffffffffffffffffffffffffffff16148061008a57505f73ffffffffffffffffffffffffffffffffffffffff168273ffffffffffffffffffffffffffffffffffffffff16145b156100c1576040517fd92e233d00000000000000000000000000000000000000000000000000000000815260040160405180910390fd5b5f84036100fa576040517fe523909000000000000000000000000000000000000000000000000000000000815260040160405180910390fd5b3360015f6101000a81548173ffffffffffffffffffffffffffffffffffffffff021916908373ffffffffffffffffffffffffffffffffffffffff1602179055508560025f6101000a81548173ffffffffffffffffffffffffffffffffffffffff021916908373ffffffffffffffffffffffffffffffffffffffff16021790555084600381905550836004819055508260058190555081600c5f6101000a81548173ffffffffffffffffffffffffffffffffffffffff021916908373ffffffffffffffffffffffffffffffffffffffff16021790555080600d8190555062ffffff5f60016101000a81548173ffffffffffffffffffffffffffffffffffffffff021916908373ffffffffffffffffffffffffffffffffffffffff16021790555061022761033560201b60201c565b5f8054906101000a900460ff1661032a575f60019054906101000a900473ffffffffffffffffffffffffffffffffffffffff1673ffffffffffffffffffffffffffffffffffffffff16635a6aced05f807f40e9cecb9f5f1f1c5b9c97dec2917b7ee92e57ba5563708daca2ac007aab8be07fa65f96fc951c35ead38878e0f0b7a3c744a6f5ccc1476b313353ce31712313ad807fa65f96fc951c35ead38878e0f0b7a3c744a6f5ccc1476b313353ce31712313ad6040518763ffffffff1660e01b81526004016102fc969594939291906104d4565b5f604051808303815f87803b158015610313575f80fd5b505af1158015610325573d5f803e3d5ffd5b505050505b505050505050610533565b5f62ffffff3b90505f81145f806101000a81548160ff02191690831515021790555050565b5f80fd5b5f73ffffffffffffffffffffffffffffffffffffffff82169050919050565b5f6103878261035e565b9050919050565b6103978161037d565b81146103a1575f80fd5b50565b5f815190506103b28161038e565b92915050565b5f819050919050565b6103ca816103b8565b81146103d4575f80fd5b50565b5f815190506103e5816103c1565b92915050565b5f805f805f8060c087890312156104055761040461035a565b5b5f61041289828a016103a4565b965050602061042389828a016103d7565b955050604061043489828a016103d7565b945050606061044589828a016103d7565b935050608061045689828a016103a4565b92505060a061046789828a016103d7565b9150509295509295509295565b5f819050919050565b5f819050919050565b5f6104a061049b61049684610474565b61047d565b6103b8565b9050919050565b6104b081610486565b82525050565b6104bf8161037d565b82525050565b6104ce816103b8565b82525050565b5f60c0820190506104e75f8301896104a7565b6104f460208301886104b6565b61050160408301876104c5565b61050e60608301866104c5565b61051b60808301856104c5565b61052860a08301846104c5565b979650505050505050565b611ec5806105405f395ff3fe608060405234801561000f575f80fd5b5060043610610171575f3560e01c806381ede6cd116100dc578063a0442c5711610095578063c32118571161006f578063c321185714610453578063cbd9cd5714610483578063e31b2010146104a1578063f2fde38b146104bd57610171565b8063a0442c57146103e7578063a18f9aec14610417578063b07506111461043557610171565b806381ede6cd1461030f5780638671b5da1461033f57806389e99a3b1461035d5780638da5cb5b1461038d578063907704fd146103ab5780639757b970146103c957610171565b806333d608f11161012e57806333d608f11461025f5780634210a2441461027d57806348524e951461029b5780636c086880146102b75780636d2eea6e146102d557806380a3d609146102f357610171565b80630d152c2c146101755780631f1e90181461019157806321b76c92146101c35780632b7e8bcf146101e15780633193dcdc1461021157806332ae6ceb14610241575b5f80fd5b61018f600480360381019061018a91906114bc565b6104d9565b005b6101ab60048036038101906101a691906115a2565b610bc5565b6040516101ba939291906115f8565b60405180910390f35b6101cb610ce4565b6040516101d8919061162d565b60405180910390f35b6101fb60048036038101906101f691906115a2565b610cea565b6040516102089190611660565b60405180910390f35b61022b60048036038101906102269190611679565b610e4d565b604051610238919061162d565b60405180910390f35b610249610e62565b604051610256919061162d565b60405180910390f35b610267610e68565b60405161027491906116c6565b60405180910390f35b610285610e6f565b604051610292919061162d565b60405180910390f35b6102b560048036038101906102b0919061173c565b610e75565b005b6102bf610f95565b6040516102cc919061162d565b60405180910390f35b6102dd610fb9565b6040516102ea919061162d565b60405180910390f35b61030d6004803603810190610308919061178c565b610fbf565b005b61032960048036038101906103249190611679565b61113c565b604051610336919061162d565b60405180910390f35b610347611151565b604051610354919061162d565b60405180910390f35b61037760048036038101906103729190611679565b611175565b604051610384919061162d565b60405180910390f35b61039561118a565b6040516103a291906117d9565b60405180910390f35b6103b36111af565b6040516103c091906117d9565b60405180910390f35b6103d16111d4565b6040516103de919061162d565b60405180910390f35b61040160048036038101906103fc9190611679565b6111da565b60405161040e919061162d565b60405180910390f35b61041f6111ef565b60405161042c91906117d9565b60405180910390f35b61043d611214565b60405161044a919061162d565b60405180910390f35b61046d60048036038101906104689190611679565b61121a565b60405161047a919061162d565b60405180910390f35b61048b61122f565b6040516104989190611801565b60405180910390f35b6104bb60048036038101906104b69190611679565b611235565b005b6104d760048036038101906104d29190611679565b611363565b005b5f8054906101000a900460ff16610525576040517f08c379a000000000000000000000000000000000000000000000000000000000815260040161051c90611874565b60405180910390fd5b5f805f838060c00190610538919061189e565b81019061054591906119ce565b509550509450505092505f8084600f0b1261057257836fffffffffffffffffffffffffffffffff1661058f565b8361057c90611a98565b6fffffffffffffffffffffffffffffffff165b90505f8560200160208101906105a59190611679565b90505f865f013590505f60095f8473ffffffffffffffffffffffffffffffffffffffff1673ffffffffffffffffffffffffffffffffffffffff1681526020019081526020015f20540361067c578060095f8473ffffffffffffffffffffffffffffffffffffffff1673ffffffffffffffffffffffffffffffffffffffff1681526020019081526020015f20819055508362ffffff16600a5f8473ffffffffffffffffffffffffffffffffffffffff1673ffffffffffffffffffffffffffffffffffffffff1681526020019081526020015f20819055505b5f600c5f9054906101000a900473ffffffffffffffffffffffffffffffffffffffff1673ffffffffffffffffffffffffffffffffffffffff168373ffffffffffffffffffffffffffffffffffffffff161480156106da575060035482145b905080156107165783600e5f8282546106f39190611ade565b92505081905550600f5f81548092919061070c90611b11565b91905055506107bc565b8360075f8573ffffffffffffffffffffffffffffffffffffffff1673ffffffffffffffffffffffffffffffffffffffff1681526020019081526020015f205f8282546107629190611ade565b9250508190555060085f8473ffffffffffffffffffffffffffffffffffffffff1673ffffffffffffffffffffffffffffffffffffffff1681526020019081526020015f205f8154809291906107b690611b11565b91905055505b5f6001876fffffffffffffffffffffffffffffffff166107dc9190611ade565b600a5f8673ffffffffffffffffffffffffffffffffffffffff1673ffffffffffffffffffffffffffffffffffffffff1681526020019081526020015f205460075f8773ffffffffffffffffffffffffffffffffffffffff1673ffffffffffffffffffffffffffffffffffffffff1681526020019081526020015f20546108629190611b58565b61086c9190611bc6565b90505f6001886fffffffffffffffffffffffffffffffff1661088e9190611ade565b600d54600e5461089e9190611b58565b6108a89190611bc6565b905081600b5f8773ffffffffffffffffffffffffffffffffffffffff1673ffffffffffffffffffffffffffffffffffffffff1681526020019081526020015f20819055508473ffffffffffffffffffffffffffffffffffffffff16847f844a56e166a55860befcad4b9589b5ac009e467b5e3c96786ad8a1bf9ce6476c8885604051610935929190611bf6565b60405180910390a38215801561094a57505f82115b801561095557505f81115b801561099f5750600360085f8773ffffffffffffffffffffffffffffffffffffffff1673ffffffffffffffffffffffffffffffffffffffff1681526020019081526020015f205410155b80156109c5575060045481612710846109b89190611b58565b6109c29190611bc6565b10155b15610bb9578473ffffffffffffffffffffffffffffffffffffffff16847f36be962a7185c5c74a3f57651f56f012e66d44dd5e39b27c03739750e308e11f8484604051610a13929190611bf6565b60405180910390a35f848684604051602001610a3193929190611c1d565b60405160208183030381529060405290505f865f610bb8603c60025f9054906101000a900473ffffffffffffffffffffffffffffffffffffffff16600a8f610a799190611c52565b7ffffffffffffffffffffffffffffffffffffffffffffffffffffffffffff2764c620d89b489604051602401610ab799989796959493929190611d1f565b6040516020818303038152906040527f35cf7269000000000000000000000000000000000000000000000000000000007bffffffffffffffffffffffffffffffffffffffffffffffffffffffff19166020820180517bffffffffffffffffffffffffffffffffffffffffffffffffffffffff838183161783525050505090506207a12067ffffffffffffffff1660025f9054906101000a900473ffffffffffffffffffffffffffffffffffffffff1673ffffffffffffffffffffffffffffffffffffffff166003547f8dd725fa9d6cd150017ab9e60318d40616439424e2fade9c1c58854950917dfc84604051610bae9190611db1565b60405180910390a450505b50505050505050505050565b5f805f6001846fffffffffffffffffffffffffffffffff16610be79190611ade565b600a5f8773ffffffffffffffffffffffffffffffffffffffff1673ffffffffffffffffffffffffffffffffffffffff1681526020019081526020015f205460075f8873ffffffffffffffffffffffffffffffffffffffff1673ffffffffffffffffffffffffffffffffffffffff1681526020019081526020015f2054610c6d9190611b58565b610c779190611bc6565b92506001846fffffffffffffffffffffffffffffffff16610c989190611ade565b600d54600e54610ca89190611b58565b610cb29190611bc6565b91505f8211610cc1575f610cdb565b8161271084610cd09190611b58565b610cda9190611bc6565b5b90509250925092565b600e5481565b5f805f3073ffffffffffffffffffffffffffffffffffffffff16631f1e901886866040518363ffffffff1660e01b8152600401610d28929190611dd1565b606060405180830381865afa158015610d43573d5f803e3d5ffd5b505050506040513d601f19601f82011682018060405250810190610d679190611e0c565b5091509150600c5f9054906101000a900473ffffffffffffffffffffffffffffffffffffffff1673ffffffffffffffffffffffffffffffffffffffff168573ffffffffffffffffffffffffffffffffffffffff1614158015610dc857505f82115b8015610dd357505f81115b8015610e1d5750600360085f8773ffffffffffffffffffffffffffffffffffffffff1673ffffffffffffffffffffffffffffffffffffffff1681526020019081526020015f205410155b8015610e4357506004548161271084610e369190611b58565b610e409190611bc6565b10155b9250505092915050565b6008602052805f5260405f205f915090505481565b60045481565b6207a12081565b600d5481565b60015f9054906101000a900473ffffffffffffffffffffffffffffffffffffffff1673ffffffffffffffffffffffffffffffffffffffff163373ffffffffffffffffffffffffffffffffffffffff1614610efb576040517f82b4290000000000000000000000000000000000000000000000000000000000815260040160405180910390fd5b5f831480610f095750606482115b15610f40576040517fe523909000000000000000000000000000000000000000000000000000000000815260040160405180910390fd5b8260048190555081600581905550806006819055507fb783f03f2b7bef8b4ef88fb47c4e0afe25cf4f437c229fc94cf6a7352b715eac838383604051610f8893929190611e5c565b60405180910390a1505050565b7f40e9cecb9f5f1f1c5b9c97dec2917b7ee92e57ba5563708daca2ac007aab8be081565b60055481565b60015f9054906101000a900473ffffffffffffffffffffffffffffffffffffffff1673ffffffffffffffffffffffffffffffffffffffff163373ffffffffffffffffffffffffffffffffffffffff1614611045576040517f82b4290000000000000000000000000000000000000000000000000000000000815260040160405180910390fd5b5f73ffffffffffffffffffffffffffffffffffffffff168273ffffffffffffffffffffffffffffffffffffffff16036110aa576040517fd92e233d00000000000000000000000000000000000000000000000000000000815260040160405180910390fd5b81600c5f6101000a81548173ffffffffffffffffffffffffffffffffffffffff021916908373ffffffffffffffffffffffffffffffffffffffff16021790555080600d819055505f600e819055505f600f819055507fa8db8be35fdd65f6c89b4c4d860bc5941016c0d3684505d9077b6c59ff7d195f8282604051611130929190611e91565b60405180910390a15050565b6009602052805f5260405f205f915090505481565b7fa65f96fc951c35ead38878e0f0b7a3c744a6f5ccc1476b313353ce31712313ad81565b600a602052805f5260405f205f915090505481565b60015f9054906101000a900473ffffffffffffffffffffffffffffffffffffffff1681565b60025f9054906101000a900473ffffffffffffffffffffffffffffffffffffffff1681565b600f5481565b600b602052805f5260405f205f915090505481565b600c5f9054906101000a900473ffffffffffffffffffffffffffffffffffffffff1681565b60035481565b6007602052805f5260405f205f915090505481565b60065481565b60015f9054906101000a900473ffffffffffffffffffffffffffffffffffffffff1673ffffffffffffffffffffffffffffffffffffffff163373ffffffffffffffffffffffffffffffffffffffff16146112bb576040517f82b4290000000000000000000000000000000000000000000000000000000000815260040160405180910390fd5b5f73ffffffffffffffffffffffffffffffffffffffff168173ffffffffffffffffffffffffffffffffffffffff1603611320576040517fd92e233d00000000000000000000000000000000000000000000000000000000815260040160405180910390fd5b8060025f6101000a81548173ffffffffffffffffffffffffffffffffffffffff021916908373ffffffffffffffffffffffffffffffffffffffff16021790555050565b60015f9054906101000a900473ffffffffffffffffffffffffffffffffffffffff1673ffffffffffffffffffffffffffffffffffffffff163373ffffffffffffffffffffffffffffffffffffffff16146113e9576040517f82b4290000000000000000000000000000000000000000000000000000000000815260040160405180910390fd5b5f73ffffffffffffffffffffffffffffffffffffffff168173ffffffffffffffffffffffffffffffffffffffff160361144e576040517fd92e233d00000000000000000000000000000000000000000000000000000000815260040160405180910390fd5b8060015f6101000a81548173ffffffffffffffffffffffffffffffffffffffff021916908373ffffffffffffffffffffffffffffffffffffffff16021790555050565b5f80fd5b5f80fd5b5f80fd5b5f61018082840312156114b3576114b2611499565b5b81905092915050565b5f602082840312156114d1576114d0611491565b5b5f82013567ffffffffffffffff8111156114ee576114ed611495565b5b6114fa8482850161149d565b91505092915050565b5f73ffffffffffffffffffffffffffffffffffffffff82169050919050565b5f61152c82611503565b9050919050565b61153c81611522565b8114611546575f80fd5b50565b5f8135905061155781611533565b92915050565b5f6fffffffffffffffffffffffffffffffff82169050919050565b6115818161155d565b811461158b575f80fd5b50565b5f8135905061159c81611578565b92915050565b5f80604083850312156115b8576115b7611491565b5b5f6115c585828601611549565b92505060206115d68582860161158e565b9150509250929050565b5f819050919050565b6115f2816115e0565b82525050565b5f60608201905061160b5f8301866115e9565b61161860208301856115e9565b61162560408301846115e9565b949350505050565b5f6020820190506116405f8301846115e9565b92915050565b5f8115159050919050565b61165a81611646565b82525050565b5f6020820190506116735f830184611651565b92915050565b5f6020828403121561168e5761168d611491565b5b5f61169b84828501611549565b91505092915050565b5f67ffffffffffffffff82169050919050565b6116c0816116a4565b82525050565b5f6020820190506116d95f8301846116b7565b92915050565b6116e8816115e0565b81146116f2575f80fd5b50565b5f81359050611703816116df565b92915050565b5f819050919050565b61171b81611709565b8114611725575f80fd5b50565b5f8135905061173681611712565b92915050565b5f805f6060848603121561175357611752611491565b5b5f611760868287016116f5565b9350506020611771868287016116f5565b925050604061178286828701611728565b9150509250925092565b5f80604083850312156117a2576117a1611491565b5b5f6117af85828601611549565b92505060206117c0858286016116f5565b9150509250929050565b6117d381611522565b82525050565b5f6020820190506117ec5f8301846117ca565b92915050565b6117fb81611709565b82525050565b5f6020820190506118145f8301846117f2565b92915050565b5f82825260208201905092915050565b7f5969656c6453636f75743a20564d206f6e6c79000000000000000000000000005f82015250565b5f61185e60138361181a565b91506118698261182a565b602082019050919050565b5f6020820190508181035f83015261188b81611852565b9050919050565b5f80fd5b5f80fd5b5f80fd5b5f80833560016020038436030381126118ba576118b9611892565b5b80840192508235915067ffffffffffffffff8211156118dc576118db611896565b5b6020830192506001820236038313156118f8576118f761189a565b5b509250929050565b5f81600f0b9050919050565b61191581611900565b811461191f575f80fd5b50565b5f813590506119308161190c565b92915050565b61193f81611503565b8114611949575f80fd5b50565b5f8135905061195a81611936565b92915050565b5f8160020b9050919050565b61197581611960565b811461197f575f80fd5b50565b5f813590506119908161196c565b92915050565b5f62ffffff82169050919050565b6119ad81611996565b81146119b7575f80fd5b50565b5f813590506119c8816119a4565b92915050565b5f805f805f805f60e0888a0312156119e9576119e8611491565b5b5f6119f68a828b01611922565b9750506020611a078a828b01611922565b9650506040611a188a828b0161194c565b9550506060611a298a828b0161158e565b9450506080611a3a8a828b01611982565b93505060a0611a4b8a828b016119ba565b92505060c0611a5c8a828b016116f5565b91505092959891949750929550565b7f4e487b71000000000000000000000000000000000000000000000000000000005f52601160045260245ffd5b5f611aa282611900565b91507fffffffffffffffffffffffffffffffff800000000000000000000000000000008203611ad457611ad3611a6b565b5b815f039050919050565b5f611ae8826115e0565b9150611af3836115e0565b9250828201905080821115611b0b57611b0a611a6b565b5b92915050565b5f611b1b826115e0565b91507fffffffffffffffffffffffffffffffffffffffffffffffffffffffffffffffff8203611b4d57611b4c611a6b565b5b600182019050919050565b5f611b62826115e0565b9150611b6d836115e0565b9250828202611b7b816115e0565b91508282048414831517611b9257611b91611a6b565b5b5092915050565b7f4e487b71000000000000000000000000000000000000000000000000000000005f52601260045260245ffd5b5f611bd0826115e0565b9150611bdb836115e0565b925082611beb57611bea611b99565b5b828204905092915050565b5f604082019050611c095f8301856115e9565b611c1660208301846115e9565b9392505050565b5f606082019050611c305f8301866115e9565b611c3d60208301856117ca565b611c4a60408301846115e9565b949350505050565b5f611c5c8261155d565b9150611c678361155d565b925082611c7757611c76611b99565b5b828204905092915050565b611c8b81611996565b82525050565b611c9a81611960565b82525050565b611ca98161155d565b82525050565b5f81519050919050565b5f82825260208201905092915050565b8281835e5f83830152505050565b5f601f19601f8301169050919050565b5f611cf182611caf565b611cfb8185611cb9565b9350611d0b818560208601611cc9565b611d1481611cd7565b840191505092915050565b5f61012082019050611d335f83018c6117ca565b611d40602083018b6117ca565b611d4d604083018a611c82565b611d5a6060830189611c91565b611d6760808301886117ca565b611d7460a0830187611ca0565b611d8160c0830186611c91565b611d8e60e0830185611c91565b818103610100830152611da18184611ce7565b90509a9950505050505050505050565b5f6020820190508181035f830152611dc98184611ce7565b905092915050565b5f604082019050611de45f8301856117ca565b611df16020830184611ca0565b9392505050565b5f81519050611e06816116df565b92915050565b5f805f60608486031215611e2357611e22611491565b5b5f611e3086828701611df8565b9350506020611e4186828701611df8565b9250506040611e5286828701611df8565b9150509250925092565b5f606082019050611e6f5f8301866115e9565b611e7c60208301856115e9565b611e8960408301846117f2565b949350505050565b5f604082019050611ea45f8301856117ca565b611eb160208301846115e9565b939250505056fea164736f6c634300081a000a","linkReferences":{}},"methodIdentifiers":{"CALLBACK_GAS_LIMIT()":"33d608f1","REACTIVE_IGNORE()":"8671b5da","UNISWAP_V4_SWAP_TOPIC_0()":"6c086880","aiModelHash()":"cbd9cd57","cumulativeVolume(address)":"c3211857","destinationChainId()":"b0750611","kineticHook()":"907704fd","lastYieldVelocity(address)":"a0442c57","localCumulativeVolume()":"21b76c92","localPool()":"a18f9aec","localPoolFee()":"4210a244","localSwapCount()":"9757b970","minConfidenceScore()":"6d2eea6e","owner()":"8da5cb5b","poolChainId(address)":"81ede6cd","poolFee(address)":"89e99a3b","react((uint256,address,uint256,uint256,uint256,uint256,bytes,uint256,uint256,uint256,uint256,uint256))":"0d152c2c","swapCount(address)":"3193dcdc","transferOwnership(address)":"f2fde38b","updateKineticHook(address)":"e31b2010","updateLocalPool(address,uint256)":"80a3d609","updateStrategy(uint256,uint256,bytes32)":"48524e95","wouldTriggerRebalance(address,uint128)":"2b7e8bcf","yieldThreshold()":"32ae6ceb","yieldVelocityComparison(address,uint128)":"1f1e9018"},"id":86}