{"abi":[{"type":"constructor","inputs":[{"name":"_poolManager","type":"address","internalType":"contract IPoolManager"},{"name":"_reactiveSender","type":"address","internalType":"address"}],"stateMutability":"nonpayable"},{"type":"function","name":"afterAddLiquidity","inputs":[{"name":"sender","type":"address","internalType":"address"},{"name":"key","type":"tuple","internalType":"struct PoolKey","components":[{"name":"currency0","type":"address","internalType":"Currency"},{"name":"currency1","type":"address","internalType":"Currency"},{"name":"fee","type":"uint24","internalType":"uint24"},{"name":"tickSpacing","type":"int24","internalType":"int24"},{"name":"hooks","type":"address","internalType":"contract IHooks"}]},{"name":"params","type":"tuple","internalType":"struct ModifyLiquidityParams","components":[{"name":"tickLower","type":"int24","internalType":"int24"},{"name":"tickUpper","type":"int24","internalType":"int24"},{"name":"liquidityDelta","type":"int256","internalType":"int256"},{"name":"salt","type":"bytes32","internalType":"bytes32"}]},{"name":"delta0","type":"int256","internalType":"BalanceDelta"},{"name":"delta1","type":"int256","internalType":"BalanceDelta"},{"name":"hookData","type":"bytes","internalType":"bytes"}],"outputs":[{"name":"","type":"bytes4","internalType":"bytes4"},{"name":"","type":"int256","internalType":"BalanceDelta"}],"stateMutability":"nonpayable"},{"type":"function","name":"afterDonate","inputs":[{"name":"sender","type":"address","internalType":"address"},{"name":"key","type":"tuple","internalType":"struct PoolKey","components":[{"name":"currency0","type":"address","internalType":"Currency"},{"name":"currency1","type":"address","internalType":"Currency"},{"name":"fee","type":"uint24","internalType":"uint24"},{"name":"tickSpacing","type":"int24","internalType":"int24"},{"name":"hooks","type":"address","internalType":"contract IHooks"}]},{"name":"amount0","type":"uint256","internalType":"uint256"},{"name":"amount1","type":"uint256","internalType":"uint256"},{"name":"hookData","type":"bytes","internalType":"bytes"}],"outputs":[{"name":"","type":"bytes4","internalType":"bytes4"}],"stateMutability":"nonpayable"},{"type":"function","name":"afterInitialize","inputs":[{"name":"sender","type":"address","internalType":"address"},{"name":"key","type":"tuple","internalType":"struct PoolKey","components":[{"name":"currency0","type":"address","internalType":"Currency"},{"name":"currency1","type":"address","internalType":"Currency"},{"name":"fee","type":"uint24","internalType":"uint24"},{"name":"tickSpacing","type":"int24","internalType":"int24"},{"name":"hooks","type":"address","internalType":"contract IHooks"}]},{"name":"sqrtPriceX96","type":"uint160","internalType":"uint160"},{"name":"tick","type":"int24","internalType":"int24"}],"outputs":[{"name":"","type":"bytes4","internalType":"bytes4"}],"stateMutability":"nonpayable"},{"type":"function","name":"afterRemoveLiquidity","inputs":[{"name":"sender","type":"address","internalType":"address"},{"name":"key","type":"tuple","internalType":"struct PoolKey","components":[{"name":"currency0","type":"address","internalType":"Currency"},{"name":"currency1","type":"address","internalType":"Currency"},{"name":"fee","type":"uint24","internalType":"uint24"},{"name":"tickSpacing","type":"int24","internalType":"int24"},{"name":"hooks","type":"address","internalType":"contract IHooks"}]},{"name":"params","type":"tuple","internalType":"struct ModifyLiquidityParams","components":[{"name":"tickLower","type":"int24","internalType":"int24"},{"name":"tickUpper","type":"int24","internalType":"int24"},{"name":"liquidityDelta","type":"int256","internalType":"int256"},{"name":"salt","type":"bytes32","internalType":"bytes32"}]},{"name":"delta0","type":"int256","internalType":"BalanceDelta"},{"name":"delta1","type":"int256","internalType":"BalanceDelta"},{"name":"hookData","type":"bytes","internalType":"bytes"}],"outputs":[{"name":"","type":"bytes4","internalType":"bytes4"},{"name":"","type":"int256","internalType":"BalanceDelta"}],"stateMutability":"nonpayable"},{"type":"function","name":"afterSwap","inputs":[{"name":"sender","type":"address","internalType":"address"},{"name":"key","type":"tuple","internalType":"struct PoolKey","components":[{"name":"currency0","type":"address","internalType":"Currency"},{"name":"currency1","type":"address","internalType":"Currency"},{"name":"fee","type":"uint24","internalType":"uint24"},{"name":"tickSpacing","type":"int24","internalType":"int24"},{"name":"hooks","type":"address","internalType":"contract IHooks"}]},{"name":"params","type":"tuple","internalType":"struct SwapParams","components":[{"name":"zeroForOne","type":"bool","internalType":"bool"},{"name":"amountSpecified","type":"int256","internalType":"int256"},{"name":"sqrtPriceLimitX96","type":"uint160","internalType":"uint160"}]},{"name":"delta","type":"int256","internalType":"BalanceDelta"},{"name":"hookData","type":"bytes","internalType":"bytes"}],"outputs":[{"name":"","type":"bytes4","internalType":"bytes4"},{"name":"","type":"int128","internalType":"int128"}],"stateMutability":"nonpayable"},{"type":"function","name":"beforeAddLiquidity","inputs":[{"name":"sender","type":"address","internalType":"address"},{"name":"key","type":"tuple","internalType":"struct PoolKey","components":[{"name":"currency0","type":"address","internalType":"Currency"},{"name":"currency1","type":"address","internalType":"Currency"},{"name":"fee","type":"uint24","internalType":"uint24"},{"name":"tickSpacing","type":"int24","internalType":"int24"},{"name":"hooks","type":"address","internalType":"contract IHooks"}]},{"name":"params","type":"tuple","internalType":"struct ModifyLiquidityParams","components":[{"name":"tickLower","type":"int24","internalType":"int24"},{"name":"tickUpper","type":"int24","internalType":"int24"},{"name":"liquidityDelta","type":"int256","internalType":"int256"},{"name":"salt","type":"bytes32","internalType":"bytes32"}]},{"name":"hookData","type":"bytes","internalType":"bytes"}],"outputs":[{"name":"","type":"bytes4","internalType":"bytes4"}],"stateMutability":"nonpayable"},{"type":"function","name":"beforeDonate","inputs":[{"name":"sender","type":"address","internalType":"address"},{"name":"key","type":"tuple","internalType":"struct PoolKey","components":[{"name":"currency0","type":"address","internalType":"Currency"},{"name":"currency1","type":"address","internalType":"Currency"},{"name":"fee","type":"uint24","internalType":"uint24"},{"name":"tickSpacing","type":"int24","internalType":"int24"},{"name":"hooks","type":"address","internalType":"contract IHooks"}]},{"name":"amount0","type":"uint256","internalType":"uint256"},{"name":"amount1","type":"uint256","internalType":"uint256"},{"name":"hookData","type":"bytes","internalType":"bytes"}],"outputs":[{"name":"","type":"bytes4","internalType":"bytes4"}],"stateMutability":"nonpayable"},{"type":"function","name":"beforeInitialize","inputs":[{"name":"sender","type":"address","internalType":"address"},{"name":"key","type":"tuple","internalType":"struct PoolKey","components":[{"name":"currency0","type":"address","internalType":"Currency"},{"name":"currency1","type":"address","internalType":"Currency"},{"name":"fee","type":"uint24","internalType":"uint24"},{"name":"tickSpacing","type":"int24","internalType":"int24"},{"name":"hooks","type":"address","internalType":"contract IHooks"}]},{"name":"sqrtPriceX96","type":"uint160","internalType":"uint160"}],"outputs":[{"name":"","type":"bytes4","internalType":"bytes4"}],"stateMutability":"nonpayable"},{"type":"function","name":"beforeRemoveLiquidity","inputs":[{"name":"sender","type":"address","internalType":"address"},{"name":"key","type":"tuple","internalType":"struct PoolKey","components":[{"name":"currency0","type":"address","internalType":"Currency"},{"name":"currency1","type":"address","internalType":"Currency"},{"name":"fee","type":"uint24","internalType":"uint24"},{"name":"tickSpacing","type":"int24","internalType":"int24"},{"name":"hooks","type":"address","internalType":"contract IHooks"}]},{"name":"params","type":"tuple","internalType":"struct ModifyLiquidityParams","components":[{"name":"tickLower","type":"int24","internalType":"int24"},{"name":"tickUpper","type":"int24","internalType":"int24"},{"name":"liquidityDelta","type":"int256","internalType":"int256"},{"name":"salt","type":"bytes32","internalType":"bytes32"}]},{"name":"hookData","type":"bytes","internalType":"bytes"}],"outputs":[{"name":"","type":"bytes4","internalType":"bytes4"}],"stateMutability":"nonpayable"},{"type":"function","name":"beforeSwap","inputs":[{"name":"sender","type":"address","internalType":"address"},{"name":"key","type":"tuple","internalType":"struct PoolKey","components":[{"name":"currency0","type":"address","internalType":"Currency"},{"name":"currency1","type":"address","internalType":"Currency"},{"name":"fee","type":"uint24","internalType":"uint24"},{"name":"tickSpacing","type":"int24","internalType":"int24"},{"name":"hooks","type":"address","internalType":"contract IHooks"}]},{"name":"params","type":"tuple","internalType":"struct SwapParams","components":[{"name":"zeroForOne","type":"bool","internalType":"bool"},{"name":"amountSpecified","type":"int256","internalType":"int256"},{"name":"sqrtPriceLimitX96","type":"uint160","internalType":"uint160"}]},{"name":"hookData","type":"bytes","internalType":"bytes"}],"outputs":[{"name":"","type":"bytes4","internalType":"bytes4"},{"name":"","type":"int256","internalType":"BeforeSwapDelta"},{"name":"","type":"uint24","internalType":"uint24"}],"stateMutability":"nonpayable"},{"type":"function","name":"cumulativeVolume","inputs":[{"name":"","type":"bytes32","internalType":"PoolId"}],"outputs":[{"name":"","type":"uint256","internalType":"uint256"}],"stateMutability":"view"},{"type":"function","name":"getHookPermissions","inputs":[],"outputs":[{"name":"","type":"tuple","internalType":"struct Hooks.Permissions","components":[{"name":"beforeInitialize","type":"bool","internalType":"bool"},{"name":"afterInitialize","type":"bool","internalType":"bool"},{"name":"beforeAddLiquidity","type":"bool","internalType":"bool"},{"name":"afterAddLiquidity","type":"bool","internalType":"bool"},{"name":"beforeRemoveLiquidity","type":"bool","internalType":"bool"},{"name":"afterRemoveLiquidity","type":"bool","internalType":"bool"},{"name":"beforeSwap","type":"bool","internalType":"bool"},{"name":"afterSwap","type":"bool","internalType":"bool"},{"name":"beforeDonate","type":"bool","internalType":"bool"},{"name":"afterDonate","type":"bool","internalType":"bool"},{"name":"beforeSwapReturnDelta","type":"bool","internalType":"bool"},{"name":"afterSwapReturnDelta","type":"bool","internalType":"bool"},{"name":"afterAddLiquidityReturnDelta","type":"bool","internalType":"bool"},{"name":"afterRemoveLiquidityReturnDelta","type":"bool","internalType":"bool"}]}],"stateMutability":"pure"},{"type":"function","name":"handleReactiveRebalance","inputs":[{"name":"key","type":"tuple","internalType":"struct PoolKey","components":[{"name":"currency0","type":"address","internalType":"Currency"},{"name":"currency1","type":"address","internalType":"Currency"},{"name":"fee","type":"uint24","internalType":"uint24"},{"name":"tickSpacing","type":"int24","internalType":"int24"},{"name":"hooks","type":"address","internalType":"contract IHooks"}]},{"name":"liquidityAmount","type":"uint128","internalType":"uint128"},{"name":"","type":"int24","internalType":"int24"},{"name":"","type":"int24","internalType":"int24"},{"name":"bridgeData","type":"bytes","internalType":"bytes"}],"outputs":[],"stateMutability":"nonpayable"},{"type":"function","name":"owner","inputs":[],"outputs":[{"name":"","type":"address","internalType":"address"}],"stateMutability":"view"},{"type":"function","name":"paused","inputs":[],"outputs":[{"name":"","type":"bool","internalType":"bool"}],"stateMutability":"view"},{"type":"function","name":"poolFee","inputs":[{"name":"","type":"bytes32","internalType":"PoolId"}],"outputs":[{"name":"","type":"uint24","internalType":"uint24"}],"stateMutability":"view"},{"type":"function","name":"poolManager","inputs":[],"outputs":[{"name":"","type":"address","internalType":"contract IPoolManager"}],"stateMutability":"view"},{"type":"function","name":"reactiveSender","inputs":[],"outputs":[{"name":"","type":"address","internalType":"address"}],"stateMutability":"view"},{"type":"function","name":"setEmergencyPause","inputs":[{"name":"_paused","type":"bool","internalType":"bool"}],"outputs":[],"stateMutability":"nonpayable"},{"type":"function","name":"setReactiveSender","inputs":[{"name":"_newSender","type":"address","internalType":"address"}],"outputs":[],"stateMutability":"nonpayable"},{"type":"function","name":"swapCount","inputs":[{"name":"","type":"bytes32","internalType":"PoolId"}],"outputs":[{"name":"","type":"uint256","internalType":"uint256"}],"stateMutability":"view"},{"type":"function","name":"transferOwnership","inputs":[{"name":"_newOwner","type":"address","internalType":"address"}],"outputs":[],"stateMutability":"nonpayable"},{"type":"function","name":"unlockCallback","inputs":[{"name":"data","type":"bytes","internalType":"bytes"}],"outputs":[{"name":"","type":"bytes","internalType":"bytes"}],"stateMutability":"nonpayable"},{"type":"function","name":"yieldVelocity","inputs":[{"name":"key","type":"tuple","internalType":"struct PoolKey","components":[{"name":"currency0","type":"address","internalType":"Currency"},{"name":"currency1","type":"address","internalType":"Currency"},{"name":"fee","type":"uint24","internalType":"uint24"},{"name":"tickSpacing","type":"int24","internalType":"int24"},{"name":"hooks","type":"address","internalType":"contract IHooks"}]}],"outputs":[{"name":"","type":"uint256","internalType":"uint256"}],"stateMutability":"view"},{"type":"event","name":"BridgeInitiated","inputs":[{"name":"bridgeData","type":"bytes","indexed":false,"internalType":"bytes"}],"anonymous":false},{"type":"event","name":"EmergencyPauseToggled","inputs":[{"name":"paused","type":"bool","indexed":false,"internalType":"bool"}],"anonymous":false},{"type":"event","name":"ReactiveSenderUpdated","inputs":[{"name":"oldSender","type":"address","indexed":true,"internalType":"address"},{"name":"newSender","type":"address","indexed":true,"internalType":"address"}],"anonymous":false},{"type":"event","name":"RebalanceTriggered","inputs":[{"name":"poolId","type":"bytes32","indexed":true,"internalType":"PoolId"},{"name":"liquidity","type":"uint128","indexed":false,"internalType":"uint128"},{"name":"bridgeData","type":"bytes","indexed":false,"internalType":"bytes"}],"anonymous":false},{"type":"error","name":"HookNotImplemented","inputs":[]},{"type":"error","name":"InvalidPool","inputs":[]},{"type":"error","name":"LiquidityWithdrawFailed","inputs":[]},{"type":"error","name":"NotPoolManager","inputs":[]},{"type":"error","name":"NotSelf","inputs":[]},{"type":"error","name":"ReactivePaused","inputs":[]},{"type":"error","name":"SafeCastOverflow","inputs":[]},{"type":"error","name":"Unauthorized","inputs":[]},{"type":"error","name":"ZeroAddress","inputs":[]}],"bytecode":{"object":"0x60a060405234801561000f575f80fd5b50604051613612380380613612833981810160405281019061003191906106f6565b818073ffffffffffffffffffffffffffffffffffffffff1660808173ffffffffffffffffffffffffffffffffffffffff16815250506100753061016160201b60201c565b505f73ffffffffffffffffffffffffffffffffffffffff168173ffffffffffffffffffffffffffffffffffffffff16036100db576040517fd92e233d00000000000000000000000000000000000000000000000000000000815260040160405180910390fd5b335f806101000a81548173ffffffffffffffffffffffffffffffffffffffff021916908373ffffffffffffffffffffffffffffffffffffffff1602179055508060015f6101000a81548173ffffffffffffffffffffffffffffffffffffffff021916908373ffffffffffffffffffffffffffffffffffffffff1602179055505050610734565b61017e8161017361018160201b60201c565b61020a60201b60201c565b50565b6101896105e0565b604051806101c001604052805f151581526020015f151581526020015f151581526020015f151581526020015f151581526020015f151581526020016001151581526020016001151581526020015f151581526020015f151581526020015f151581526020015f151581526020015f151581526020015f1515815250905090565b6102356120008373ffffffffffffffffffffffffffffffffffffffff1661059960201b90919060201c565b1515815f0151151514158061027c57506102706110008373ffffffffffffffffffffffffffffffffffffffff1661059960201b90919060201c565b15158160200151151514155b806102b957506102ad6108008373ffffffffffffffffffffffffffffffffffffffff1661059960201b90919060201c565b15158160400151151514155b806102f657506102ea6104008373ffffffffffffffffffffffffffffffffffffffff1661059960201b90919060201c565b15158160600151151514155b8061033357506103276102008373ffffffffffffffffffffffffffffffffffffffff1661059960201b90919060201c565b15158160800151151514155b8061037057506103646101008373ffffffffffffffffffffffffffffffffffffffff1661059960201b90919060201c565b15158160a00151151514155b806103ac57506103a060808373ffffffffffffffffffffffffffffffffffffffff1661059960201b90919060201c565b15158160c00151151514155b806103e857506103dc60408373ffffffffffffffffffffffffffffffffffffffff1661059960201b90919060201c565b15158160e00151151514155b80610425575061041860208373ffffffffffffffffffffffffffffffffffffffff1661059960201b90919060201c565b1515816101000151151514155b80610462575061045560108373ffffffffffffffffffffffffffffffffffffffff1661059960201b90919060201c565b1515816101200151151514155b8061049f575061049260088373ffffffffffffffffffffffffffffffffffffffff1661059960201b90919060201c565b1515816101400151151514155b806104dc57506104cf60048373ffffffffffffffffffffffffffffffffffffffff1661059960201b90919060201c565b1515816101600151151514155b80610519575061050c60028373ffffffffffffffffffffffffffffffffffffffff1661059960201b90919060201c565b1515816101800151151514155b80610556575061054960018373ffffffffffffffffffffffffffffffffffffffff1661059960201b90919060201c565b1515816101a00151151514155b15610595576105948263e65af6a060e01b7bffffffffffffffffffffffffffffffffffffffffffffffffffffffff19166105be60201b90919060201c565b5b5050565b5f8082841673ffffffffffffffffffffffffffffffffffffffff161415905092915050565b815f5273ffffffffffffffffffffffffffffffffffffffff811660045260245ffd5b604051806101c001604052805f151581526020015f151581526020015f151581526020015f151581526020015f151581526020015f151581526020015f151581526020015f151581526020015f151581526020015f151581526020015f151581526020015f151581526020015f151581526020015f151581525090565b5f80fd5b5f73ffffffffffffffffffffffffffffffffffffffff82169050919050565b5f61068a82610661565b9050919050565b5f61069b82610680565b9050919050565b6106ab81610691565b81146106b5575f80fd5b50565b5f815190506106c6816106a2565b92915050565b6106d581610680565b81146106df575f80fd5b50565b5f815190506106f0816106cc565b92915050565b5f806040838503121561070c5761070b61065d565b5b5f610719858286016106b8565b925050602061072a858286016106e2565b9150509250929050565b608051612e5d6107b55f395f81816105590152818161065d015281816106fb01528181610aa901528181610b6101528181610c0601528181610cdb01528181610df901528181610e9f01528181610f42015281816111420152818161116701528181611201015281816116b701528181611785015261181e0152612e5d5ff3fe608060405234801561000f575f80fd5b5060043610610156575f3560e01c806394168af8116100c1578063d8d1a6571161007a578063d8d1a6571461044f578063dc4c90d31461046b578063dc98354e14610489578063e1b4af69146104b9578063f2fde38b146104e9578063f3703df41461050557610156565b806394168af81461035157806395e09b01146103815780639f063efc1461039f578063b47b2fb1146103d0578063b6a8b0fa14610401578063c4e833ce1461043157610156565b80635c975abb116101135780635c975abb146102545780636c2bbe7e146102725780636fe7e6eb146102a357806388038f71146102d35780638da5cb5b1461030357806391dd73461461032157610156565b80631d5a058d1461015a57806321d0ee701461018a578063259982e5146101ba57806335cf7269146101ea57806356f2051214610206578063575e24b414610222575b5f80fd5b610174600480360381019061016f9190611b38565b610535565b6040516101819190611b7b565b60405180910390f35b6101a4600480360381019061019f9190611c6d565b61065a565b6040516101b19190611d2d565b60405180910390f35b6101d460048036038101906101cf9190611c6d565b6106f8565b6040516101e19190611d2d565b60405180910390f35b61020460048036038101906101ff9190611dc1565b610796565b005b610220600480360381019061021b9190611e59565b6108fd565b005b61023c60048036038101906102379190611ea2565b610aa4565b60405161024b93929190611f87565b60405180910390f35b61025c610b4a565b6040516102699190611fd6565b60405180910390f35b61028c60048036038101906102879190612019565b610b5d565b60405161029a9291906120d6565b60405180910390f35b6102bd60048036038101906102b89190612127565b610c03565b6040516102ca9190611d2d565b60405180910390f35b6102ed60048036038101906102e891906121bf565b610c9f565b6040516102fa9190611b7b565b60405180910390f35b61030b610cb4565b60405161031891906121f9565b60405180910390f35b61033b60048036038101906103369190612212565b610cd7565b60405161034891906122cd565b60405180910390f35b61036b600480360381019061036691906121bf565b610dbb565b6040516103789190611b7b565b60405180910390f35b610389610dd0565b60405161039691906121f9565b60405180910390f35b6103b960048036038101906103b49190612019565b610df5565b6040516103c79291906120d6565b60405180910390f35b6103ea60048036038101906103e591906122ed565b610e9b565b6040516103f89291906123a1565b60405180910390f35b61041b600480360381019061041691906123f2565b610f3f565b6040516104289190611d2d565b60405180910390f35b610439610fdf565b60405161044691906125b7565b60405180910390f35b610469600480360381019061046491906125fb565b611068565b005b610473611140565b6040516104809190612678565b60405180910390f35b6104a3600480360381019061049e9190612691565b611164565b6040516104b09190611d2d565b60405180910390f35b6104d360048036038101906104ce91906123f2565b6111fe565b6040516104e09190611d2d565b60405180910390f35b61050360048036038101906104fe9190611e59565b61129e565b005b61051f600480360381019061051a91906121bf565b6113c9565b60405161052c91906126e1565b60405180910390f35b5f806105508380360381019061054b919061288e565b6113e8565b90505f61059c827f000000000000000000000000000000000000000000000000000000000000000073ffffffffffffffffffffffffffffffffffffffff166113f490919063ffffffff16565b90505f8060045f8581526020019081526020015f205f9054906101000a900462ffffff1662ffffff16146105ef5760045f8481526020019081526020015f205f9054906101000a900462ffffff16610603565b84604001602081019061060291906128b9565b5b90506001826fffffffffffffffffffffffffffffffff166106249190612911565b8162ffffff1660025f8681526020019081526020015f20546106469190612944565b61065091906129b2565b9350505050919050565b5f7f000000000000000000000000000000000000000000000000000000000000000073ffffffffffffffffffffffffffffffffffffffff163373ffffffffffffffffffffffffffffffffffffffff16146106e0576040517fae18210a00000000000000000000000000000000000000000000000000000000815260040160405180910390fd5b6106ed8686868686611499565b905095945050505050565b5f7f000000000000000000000000000000000000000000000000000000000000000073ffffffffffffffffffffffffffffffffffffffff163373ffffffffffffffffffffffffffffffffffffffff161461077e576040517fae18210a00000000000000000000000000000000000000000000000000000000815260040160405180910390fd5b61078b86868686866114cc565b905095945050505050565b60015f9054906101000a900473ffffffffffffffffffffffffffffffffffffffff1673ffffffffffffffffffffffffffffffffffffffff163373ffffffffffffffffffffffffffffffffffffffff161461081c576040517f82b4290000000000000000000000000000000000000000000000000000000000815260040160405180910390fd5b600160149054906101000a900460ff1615610863576040517fce8119ec00000000000000000000000000000000000000000000000000000000815260040160405180910390fd5b5f61087d87803603810190610878919061288e565b6113e8565b9050807fd10c06189746792592951dcab9c3539a79b28ff20b41b02192b1e172258570828785856040516108b393929190612a2b565b60405180910390a27f24b4ba7a64b8d36c46ac27e3968f1a15819cccab0bcd3538a6c6f3b213fb09ef83836040516108ec929190612a5b565b60405180910390a150505050505050565b5f8054906101000a900473ffffffffffffffffffffffffffffffffffffffff1673ffffffffffffffffffffffffffffffffffffffff163373ffffffffffffffffffffffffffffffffffffffff1614610981576040517f82b4290000000000000000000000000000000000000000000000000000000000815260040160405180910390fd5b5f73ffffffffffffffffffffffffffffffffffffffff168173ffffffffffffffffffffffffffffffffffffffff16036109e6576040517fd92e233d00000000000000000000000000000000000000000000000000000000815260040160405180910390fd5b8073ffffffffffffffffffffffffffffffffffffffff1660015f9054906101000a900473ffffffffffffffffffffffffffffffffffffffff1673ffffffffffffffffffffffffffffffffffffffff167f53daf07ee0d544a6f1351b3ffd1ae53c39ab35c7dbe66d472bf8ecfb1036c9cf60405160405180910390a38060015f6101000a81548173ffffffffffffffffffffffffffffffffffffffff021916908373ffffffffffffffffffffffffffffffffffffffff16021790555050565b5f805f7f000000000000000000000000000000000000000000000000000000000000000073ffffffffffffffffffffffffffffffffffffffff163373ffffffffffffffffffffffffffffffffffffffff1614610b2c576040517fae18210a00000000000000000000000000000000000000000000000000000000815260040160405180910390fd5b610b3988888888886114ff565b925092509250955095509592505050565b600160149054906101000a900460ff1681565b5f807f000000000000000000000000000000000000000000000000000000000000000073ffffffffffffffffffffffffffffffffffffffff163373ffffffffffffffffffffffffffffffffffffffff1614610be4576040517fae18210a00000000000000000000000000000000000000000000000000000000815260040160405180910390fd5b610bf3898989898989896115a5565b9150915097509795505050505050565b5f7f000000000000000000000000000000000000000000000000000000000000000073ffffffffffffffffffffffffffffffffffffffff163373ffffffffffffffffffffffffffffffffffffffff1614610c89576040517fae18210a00000000000000000000000000000000000000000000000000000000815260040160405180910390fd5b610c95858585856115d9565b9050949350505050565b6002602052805f5260405f205f915090505481565b5f8054906101000a900473ffffffffffffffffffffffffffffffffffffffff1681565b60607f000000000000000000000000000000000000000000000000000000000000000073ffffffffffffffffffffffffffffffffffffffff163373ffffffffffffffffffffffffffffffffffffffff1614610d5e576040517f82b4290000000000000000000000000000000000000000000000000000000000815260040160405180910390fd5b5f805f808686810190610d719190612a7d565b93509350935093505f80610d878686868661160c565b915091508181604051602001610d9e929190612ae2565b604051602081830303815290604052965050505050505092915050565b6003602052805f5260405f205f915090505481565b60015f9054906101000a900473ffffffffffffffffffffffffffffffffffffffff1681565b5f807f000000000000000000000000000000000000000000000000000000000000000073ffffffffffffffffffffffffffffffffffffffff163373ffffffffffffffffffffffffffffffffffffffff1614610e7c576040517fae18210a00000000000000000000000000000000000000000000000000000000815260040160405180910390fd5b610e8b898989898989896118b6565b9150915097509795505050505050565b5f807f000000000000000000000000000000000000000000000000000000000000000073ffffffffffffffffffffffffffffffffffffffff163373ffffffffffffffffffffffffffffffffffffffff1614610f22576040517fae18210a00000000000000000000000000000000000000000000000000000000815260040160405180910390fd5b610f308888888888886118ea565b91509150965096945050505050565b5f7f000000000000000000000000000000000000000000000000000000000000000073ffffffffffffffffffffffffffffffffffffffff163373ffffffffffffffffffffffffffffffffffffffff1614610fc5576040517fae18210a00000000000000000000000000000000000000000000000000000000815260040160405180910390fd5b610fd38787878787876119a3565b90509695505050505050565b610fe7611a88565b604051806101c001604052805f151581526020015f151581526020015f151581526020015f151581526020015f151581526020015f151581526020016001151581526020016001151581526020015f151581526020015f151581526020015f151581526020015f151581526020015f151581526020015f1515815250905090565b5f8054906101000a900473ffffffffffffffffffffffffffffffffffffffff1673ffffffffffffffffffffffffffffffffffffffff163373ffffffffffffffffffffffffffffffffffffffff16146110ec576040517f82b4290000000000000000000000000000000000000000000000000000000000815260040160405180910390fd5b80600160146101000a81548160ff0219169083151502179055507fb5838f871ddee4623a406029b1a0b6013e0ec30f2dc114307f21459a800a8296816040516111359190611fd6565b60405180910390a150565b7f000000000000000000000000000000000000000000000000000000000000000081565b5f7f000000000000000000000000000000000000000000000000000000000000000073ffffffffffffffffffffffffffffffffffffffff163373ffffffffffffffffffffffffffffffffffffffff16146111ea576040517fae18210a00000000000000000000000000000000000000000000000000000000815260040160405180910390fd5b6111f58484846119d6565b90509392505050565b5f7f000000000000000000000000000000000000000000000000000000000000000073ffffffffffffffffffffffffffffffffffffffff163373ffffffffffffffffffffffffffffffffffffffff1614611284576040517fae18210a00000000000000000000000000000000000000000000000000000000815260040160405180910390fd5b611292878787878787611a09565b90509695505050505050565b5f8054906101000a900473ffffffffffffffffffffffffffffffffffffffff1673ffffffffffffffffffffffffffffffffffffffff163373ffffffffffffffffffffffffffffffffffffffff1614611322576040517f82b4290000000000000000000000000000000000000000000000000000000000815260040160405180910390fd5b5f73ffffffffffffffffffffffffffffffffffffffff168173ffffffffffffffffffffffffffffffffffffffff1603611387576040517fd92e233d00000000000000000000000000000000000000000000000000000000815260040160405180910390fd5b805f806101000a81548173ffffffffffffffffffffffffffffffffffffffff021916908373ffffffffffffffffffffffffffffffffffffffff16021790555050565b6004602052805f5260405f205f915054906101000a900462ffffff1681565b5f60a082209050919050565b5f806113ff83611a3c565b90505f6003825f1c6114119190612911565b5f1b90508473ffffffffffffffffffffffffffffffffffffffff16631e2eaeaf826040518263ffffffff1660e01b815260040161144e9190612b18565b602060405180830381865afa158015611469573d5f803e3d5ffd5b505050506040513d601f19601f8201168201806040525081019061148d9190612b5b565b5f1c9250505092915050565b5f6040517f0a85dc2900000000000000000000000000000000000000000000000000000000815260040160405180910390fd5b5f6040517f0a85dc2900000000000000000000000000000000000000000000000000000000815260040160405180910390fd5b5f805f8061151c88803603810190611517919061288e565b6113e8565b90505f60045f8381526020019081526020015f205f9054906101000a900462ffffff1662ffffff16036115895787604001602081019061155c91906128b9565b60045f8381526020019081526020015f205f6101000a81548162ffffff021916908362ffffff1602179055505b63575e24b460e01b5f8093509350935050955095509592505050565b5f806040517f0a85dc2900000000000000000000000000000000000000000000000000000000815260040160405180910390fd5b5f6040517f0a85dc2900000000000000000000000000000000000000000000000000000000815260040160405180910390fd5b5f806f7fffffffffffffffffffffffffffffff6fffffffffffffffffffffffffffffffff16856fffffffffffffffffffffffffffffffff16111561167c576040517f93dafdf100000000000000000000000000000000000000000000000000000000815260040160405180910390fd5b5f60405180608001604052808660020b81526020018560020b8152602001876116a490612b86565b600f0b81526020015f801b81525090505f7f000000000000000000000000000000000000000000000000000000000000000073ffffffffffffffffffffffffffffffffffffffff16635a6bcfda898460405180602001604052805f8152506040518463ffffffff1660e01b815260040161172093929190612d01565b60408051808303815f875af115801561173b573d5f803e3d5ffd5b505050506040513d601f19601f8201168201806040525081019061175f9190612d53565b91505061176b81611a70565b935061177681611a7c565b92505f84600f0b1315611811577f000000000000000000000000000000000000000000000000000000000000000073ffffffffffffffffffffffffffffffffffffffff16630b0d9c09895f015130876040518463ffffffff1660e01b81526004016117e393929190612dd0565b5f604051808303815f87803b1580156117fa575f80fd5b505af115801561180c573d5f803e3d5ffd5b505050505b5f83600f0b13156118ab577f000000000000000000000000000000000000000000000000000000000000000073ffffffffffffffffffffffffffffffffffffffff16630b0d9c09896020015130866040518463ffffffff1660e01b815260040161187d93929190612dd0565b5f604051808303815f87803b158015611894575f80fd5b505af11580156118a6573d5f803e3d5ffd5b505050505b505094509492505050565b5f806040517f0a85dc2900000000000000000000000000000000000000000000000000000000815260040160405180910390fd5b5f805f61190688803603810190611901919061288e565b6113e8565b90505f61191287611a70565b90505f81600f0b1261193657806fffffffffffffffffffffffffffffffff1661194c565b805f036fffffffffffffffffffffffffffffffff165b60025f8481526020019081526020015f205f828254019250508190555060035f8381526020019081526020015f205f81548092919060010191905055505063b47b2fb160e01b5f9250925050965096945050505050565b5f6040517f0a85dc2900000000000000000000000000000000000000000000000000000000815260040160405180910390fd5b5f6040517f0a85dc2900000000000000000000000000000000000000000000000000000000815260040160405180910390fd5b5f6040517f0a85dc2900000000000000000000000000000000000000000000000000000000815260040160405180910390fd5b5f8160065f1b604051602001611a53929190612e25565b604051602081830303815290604052805190602001209050919050565b5f8160801d9050919050565b5f81600f0b9050919050565b604051806101c001604052805f151581526020015f151581526020015f151581526020015f151581526020015f151581526020015f151581526020015f151581526020015f151581526020015f151581526020015f151581526020015f151581526020015f151581526020015f151581526020015f151581525090565b5f604051905090565b5f80fd5b5f80fd5b5f80fd5b5f60a08284031215611b2f57611b2e611b16565b5b81905092915050565b5f60a08284031215611b4d57611b4c611b0e565b5b5f611b5a84828501611b1a565b91505092915050565b5f819050919050565b611b7581611b63565b82525050565b5f602082019050611b8e5f830184611b6c565b92915050565b5f73ffffffffffffffffffffffffffffffffffffffff82169050919050565b5f611bbd82611b94565b9050919050565b611bcd81611bb3565b8114611bd7575f80fd5b50565b5f81359050611be881611bc4565b92915050565b5f60808284031215611c0357611c02611b16565b5b81905092915050565b5f80fd5b5f80fd5b5f80fd5b5f8083601f840112611c2d57611c2c611c0c565b5b8235905067ffffffffffffffff811115611c4a57611c49611c10565b5b602083019150836001820283011115611c6657611c65611c14565b5b9250929050565b5f805f805f6101608688031215611c8757611c86611b0e565b5b5f611c9488828901611bda565b9550506020611ca588828901611b1a565b94505060c0611cb688828901611bee565b93505061014086013567ffffffffffffffff811115611cd857611cd7611b12565b5b611ce488828901611c18565b92509250509295509295909350565b5f7fffffffff0000000000000000000000000000000000000000000000000000000082169050919050565b611d2781611cf3565b82525050565b5f602082019050611d405f830184611d1e565b92915050565b5f6fffffffffffffffffffffffffffffffff82169050919050565b611d6a81611d46565b8114611d74575f80fd5b50565b5f81359050611d8581611d61565b92915050565b5f8160020b9050919050565b611da081611d8b565b8114611daa575f80fd5b50565b5f81359050611dbb81611d97565b92915050565b5f805f805f806101208789031215611ddc57611ddb611b0e565b5b5f611de989828a01611b1a565b96505060a0611dfa89828a01611d77565b95505060c0611e0b89828a01611dad565b94505060e0611e1c89828a01611dad565b93505061010087013567ffffffffffffffff811115611e3e57611e3d611b12565b5b611e4a89828a01611c18565b92509250509295509295509295565b5f60208284031215611e6e57611e6d611b0e565b5b5f611e7b84828501611bda565b91505092915050565b5f60608284031215611e9957611e98611b16565b5b81905092915050565b5f805f805f6101408688031215611ebc57611ebb611b0e565b5b5f611ec988828901611bda565b9550506020611eda88828901611b1a565b94505060c0611eeb88828901611e84565b93505061012086013567ffffffffffffffff811115611f0d57611f0c611b12565b5b611f1988828901611c18565b92509250509295509295909350565b5f819050919050565b5f819050919050565b5f611f54611f4f611f4a84611f28565b611f31565b611f28565b9050919050565b611f6481611f3a565b82525050565b5f62ffffff82169050919050565b611f8181611f6a565b82525050565b5f606082019050611f9a5f830186611d1e565b611fa76020830185611f5b565b611fb46040830184611f78565b949350505050565b5f8115159050919050565b611fd081611fbc565b82525050565b5f602082019050611fe95f830184611fc7565b92915050565b611ff881611f28565b8114612002575f80fd5b50565b5f8135905061201381611fef565b92915050565b5f805f805f805f6101a0888a03121561203557612034611b0e565b5b5f6120428a828b01611bda565b97505060206120538a828b01611b1a565b96505060c06120648a828b01611bee565b9550506101406120768a828b01612005565b9450506101606120888a828b01612005565b93505061018088013567ffffffffffffffff8111156120aa576120a9611b12565b5b6120b68a828b01611c18565b925092505092959891949750929550565b6120d081611f3a565b82525050565b5f6040820190506120e95f830185611d1e565b6120f660208301846120c7565b9392505050565b61210681611b94565b8114612110575f80fd5b50565b5f81359050612121816120fd565b92915050565b5f805f8061010085870312156121405761213f611b0e565b5b5f61214d87828801611bda565b945050602061215e87828801611b1a565b93505060c061216f87828801612113565b92505060e061218087828801611dad565b91505092959194509250565b5f819050919050565b61219e8161218c565b81146121a8575f80fd5b50565b5f813590506121b981612195565b92915050565b5f602082840312156121d4576121d3611b0e565b5b5f6121e1848285016121ab565b91505092915050565b6121f381611bb3565b82525050565b5f60208201905061220c5f8301846121ea565b92915050565b5f806020838503121561222857612227611b0e565b5b5f83013567ffffffffffffffff81111561224557612244611b12565b5b61225185828601611c18565b92509250509250929050565b5f81519050919050565b5f82825260208201905092915050565b8281835e5f83830152505050565b5f601f19601f8301169050919050565b5f61229f8261225d565b6122a98185612267565b93506122b9818560208601612277565b6122c281612285565b840191505092915050565b5f6020820190508181035f8301526122e58184612295565b905092915050565b5f805f805f80610160878903121561230857612307611b0e565b5b5f61231589828a01611bda565b965050602061232689828a01611b1a565b95505060c061233789828a01611e84565b94505061012061234989828a01612005565b93505061014087013567ffffffffffffffff81111561236b5761236a611b12565b5b61237789828a01611c18565b92509250509295509295509295565b5f81600f0b9050919050565b61239b81612386565b82525050565b5f6040820190506123b45f830185611d1e565b6123c16020830184612392565b9392505050565b6123d181611b63565b81146123db575f80fd5b50565b5f813590506123ec816123c8565b92915050565b5f805f805f80610120878903121561240d5761240c611b0e565b5b5f61241a89828a01611bda565b965050602061242b89828a01611b1a565b95505060c061243c89828a016123de565b94505060e061244d89828a016123de565b93505061010087013567ffffffffffffffff81111561246f5761246e611b12565b5b61247b89828a01611c18565b92509250509295509295509295565b61249381611fbc565b82525050565b6101c082015f8201516124ae5f85018261248a565b5060208201516124c1602085018261248a565b5060408201516124d4604085018261248a565b5060608201516124e7606085018261248a565b5060808201516124fa608085018261248a565b5060a082015161250d60a085018261248a565b5060c082015161252060c085018261248a565b5060e082015161253360e085018261248a565b5061010082015161254861010085018261248a565b5061012082015161255d61012085018261248a565b5061014082015161257261014085018261248a565b5061016082015161258761016085018261248a565b5061018082015161259c61018085018261248a565b506101a08201516125b16101a085018261248a565b50505050565b5f6101c0820190506125cb5f830184612499565b92915050565b6125da81611fbc565b81146125e4575f80fd5b50565b5f813590506125f5816125d1565b92915050565b5f602082840312156126105761260f611b0e565b5b5f61261d848285016125e7565b91505092915050565b5f61264061263b61263684611b94565b611f31565b611b94565b9050919050565b5f61265182612626565b9050919050565b5f61266282612647565b9050919050565b61267281612658565b82525050565b5f60208201905061268b5f830184612669565b92915050565b5f805f60e084860312156126a8576126a7611b0e565b5b5f6126b586828701611bda565b93505060206126c686828701611b1a565b92505060c06126d786828701612113565b9150509250925092565b5f6020820190506126f45f830184611f78565b92915050565b5f80fd5b7f4e487b71000000000000000000000000000000000000000000000000000000005f52604160045260245ffd5b61273482612285565b810181811067ffffffffffffffff82111715612753576127526126fe565b5b80604052505050565b5f612765611b05565b9050612771828261272b565b919050565b61277f81611bb3565b8114612789575f80fd5b50565b5f8135905061279a81612776565b92915050565b6127a981611f6a565b81146127b3575f80fd5b50565b5f813590506127c4816127a0565b92915050565b5f6127d482611bb3565b9050919050565b6127e4816127ca565b81146127ee575f80fd5b50565b5f813590506127ff816127db565b92915050565b5f60a0828403121561281a576128196126fa565b5b61282460a061275c565b90505f6128338482850161278c565b5f8301525060206128468482850161278c565b602083015250604061285a848285016127b6565b604083015250606061286e84828501611dad565b6060830152506080612882848285016127f1565b60808301525092915050565b5f60a082840312156128a3576128a2611b0e565b5b5f6128b084828501612805565b91505092915050565b5f602082840312156128ce576128cd611b0e565b5b5f6128db848285016127b6565b91505092915050565b7f4e487b71000000000000000000000000000000000000000000000000000000005f52601160045260245ffd5b5f61291b82611b63565b915061292683611b63565b925082820190508082111561293e5761293d6128e4565b5b92915050565b5f61294e82611b63565b915061295983611b63565b925082820261296781611b63565b9150828204841483151761297e5761297d6128e4565b5b5092915050565b7f4e487b71000000000000000000000000000000000000000000000000000000005f52601260045260245ffd5b5f6129bc82611b63565b91506129c783611b63565b9250826129d7576129d6612985565b5b828204905092915050565b6129eb81611d46565b82525050565b828183375f83830152505050565b5f612a0a8385612267565b9350612a178385846129f1565b612a2083612285565b840190509392505050565b5f604082019050612a3e5f8301866129e2565b8181036020830152612a518184866129ff565b9050949350505050565b5f6020820190508181035f830152612a748184866129ff565b90509392505050565b5f805f806101008587031215612a9657612a95611b0e565b5b5f612aa387828801612805565b94505060a0612ab487828801611d77565b93505060c0612ac587828801611dad565b92505060e0612ad687828801611dad565b91505092959194509250565b5f604082019050612af55f830185612392565b612b026020830184612392565b9392505050565b612b128161218c565b82525050565b5f602082019050612b2b5f830184612b09565b92915050565b612b3a8161218c565b8114612b44575f80fd5b50565b5f81519050612b5581612b31565b92915050565b5f60208284031215612b7057612b6f611b0e565b5b5f612b7d84828501612b47565b91505092915050565b5f612b9082612386565b91507fffffffffffffffffffffffffffffffff800000000000000000000000000000008203612bc257612bc16128e4565b5b815f039050919050565b5f612bd682612647565b9050919050565b612be681612bcc565b82525050565b612bf581611f6a565b82525050565b612c0481611d8b565b82525050565b5f612c1482612647565b9050919050565b612c2481612c0a565b82525050565b60a082015f820151612c3e5f850182612bdd565b506020820151612c516020850182612bdd565b506040820151612c646040850182612bec565b506060820151612c776060850182612bfb565b506080820151612c8a6080850182612c1b565b50505050565b612c9981611f28565b82525050565b612ca88161218c565b82525050565b608082015f820151612cc25f850182612bfb565b506020820151612cd56020850182612bfb565b506040820151612ce86040850182612c90565b506060820151612cfb6060850182612c9f565b50505050565b5f61014082019050612d155f830186612c2a565b612d2260a0830185612cae565b818103610120830152612d358184612295565b9050949350505050565b5f81519050612d4d81611fef565b92915050565b5f8060408385031215612d6957612d68611b0e565b5b5f612d7685828601612d3f565b9250506020612d8785828601612d3f565b9150509250929050565b612d9a81612bcc565b82525050565b5f612dba612db5612db084611d46565b611f31565b611b63565b9050919050565b612dca81612da0565b82525050565b5f606082019050612de35f830186612d91565b612df060208301856121ea565b612dfd6040830184612dc1565b949350505050565b5f819050919050565b612e1f612e1a8261218c565b612e05565b82525050565b5f612e308285612e0e565b602082019150612e408284612e0e565b602082019150819050939250505056fea164736f6c634300081a000a","linkReferences":{}},"methodIdentifiers":{"afterAddLiquidity(address,(address,address,uint24,int24,address),(int24,int24,int256,bytes32),int256,int256,bytes)":"9f063efc","afterDonate(address,(address,address,uint24,int24,address),uint256,uint256,bytes)":"e1b4af69","afterInitialize(address,(address,address,uint24,int24,address),uint160,int24)":"6fe7e6eb","afterRemoveLiquidity(address,(address,address,uint24,int24,address),(int24,int24,int256,bytes32),int256,int256,bytes)":"6c2bbe7e","afterSwap(address,(address,address,uint24,int24,address),(bool,int256,uint160),int256,bytes)":"b47b2fb1","beforeAddLiquidity(address,(address,address,uint24,int24,address),(int24,int24,int256,bytes32),bytes)":"259982e5","beforeDonate(address,(address,address,uint24,int24,address),uint256,uint256,bytes)":"b6a8b0fa","beforeInitialize(address,(address,address,uint24,int24,address),uint160)":"dc98354e","beforeRemoveLiquidity(address,(address,address,uint24,int24,address),(int24,int24,int256,bytes32),bytes)":"21d0ee70","beforeSwap(address,(address,address,uint24,int24,address),(bool,int256,uint160),bytes)":"575e24b4","cumulativeVolume(bytes32)":"88038f71","getHookPermissions()":"c4e833ce","handleReactiveRebalance((address,address,uint24,int24,address),uint128,int24,int24,bytes)":"35cf7269","owner()":"8da5cb5b","paused()":"5c975abb","poolFee(bytes32)":"f3703df4","poolManager()":"dc4c90d3","reactiveSender()":"95e09b01","setEmergencyPause(bool)":"d8d1a657","setReactiveSender(address)":"56f20512","swapCount(bytes32)":"94168af8","transferOwnership(address)":"f2fde38b","unlockCallback(bytes)":"91dd7346","yieldVelocity((address,address,uint24,int24,address))":"1d5a058d"},"id":74}