{"abi":[{"type":"constructor","inputs":[{"name":"_poolManager","type":"address","internalType":"contract IPoolManager"},{"name":"_reactiveSender","type":"address","internalType":"address"}],"stateMutability":"nonpayable"},{"type":"function","name":"afterAddLiquidity","inputs":[{"name":"sender","type":"address","internalType":"address"},{"name":"key","type":"tuple","internalType":"struct PoolKey","components":[{"name":"currency0","type":"address","internalType":"Currency"},{"name":"currency1","type":"address","internalType":"Currency"},{"name":"fee","type":"uint24","internalType":"uint24"},{"name":"tickSpacing","type":"int24","internalType":"int24"},{"name":"hooks","type":"address","internalType":"contract IHooks"}]},{"name":"params","type":"tuple","internalType":"struct ModifyLiquidityParams","components":[{"name":"tickLower","type":"int24","internalType":"int24"},{"name":"tickUpper","type":"int24","internalType":"int24"},{"name":"liquidityDelta","type":"int256","internalType":"int256"},{"name":"salt","type":"bytes32","internalType":"bytes32"}]},{"name":"delta0","type":"int256","internalType":"BalanceDelta"},{"name":"delta1","type":"int256","internalType":"BalanceDelta"},{"name":"hookData","type":"bytes","internalType":"bytes"}],"outputs":[{"name":"","type":"bytes4","internalType":"bytes4"},{"name":"","type":"int256","internalType":"BalanceDelta"}],"stateMutability":"nonpayable"},{"type":"function","name":"afterDonate","inputs":[{"name":"sender","type":"address","internalType":"address"},{"name":"key","type":"tuple","internalType":"struct PoolKey","components":[{"name":"currency0","type":"address","internalType":"Currency"},{"name":"currency1","type":"address","internalType":"Currency"},{"name":"fee","type":"uint24","internalType":"uint24"},{"name":"tickSpacing","type":"int24","internalType":"int24"},{"name":"hooks","type":"address","internalType":"contract IHooks"}]},{"name":"amount0","type":"uint256","internalType":"uint256"},{"name":"amount1","type":"uint256","internalType":"uint256"},{"name":"hookData","type":"bytes","internalType":"bytes"}],"outputs":[{"name":"","type":"bytes4","internalType":"bytes4"}],"stateMutability":"nonpayable"},{"type":"function","name":"afterInitialize","inputs":[{"name":"sender","type":"address","internalType":"address"},{"name":"key","type":"tuple","internalType":"struct PoolKey","components":[{"name":"currency0","type":"address","internalType":"Currency"},{"name":"currency1","type":"address","internalType":"Currency"},{"name":"fee","type":"uint24","internalType":"uint24"},{"name":"tickSpacing","type":"int24","internalType":"int24"},{"name":"hooks","type":"address","internalType":"contract IHooks"}]},{"name":"sqrtPriceX96","type":"uint160","internalType":"uint160"},{"name":"tick","type":"int24","internalType":"int24"}],"outputs":[{"name":"","type":"bytes4","internalType":"bytes4"}],"stateMutability":"nonpayable"},{"type":"function","name":"afterRemoveLiquidity","inputs":[{"name":"sender","type":"address","internalType":"address"},{"name":"key","type":"tuple","internalType":"struct PoolKey","components":[{"name":"currency0","type":"address","internalType":"Currency"},{"name":"currency1","type":"address","internalType":"Currency"},{"name":"fee","type":"uint24","internalType":"uint24"},{"name":"tickSpacing","type":"int24","internalType":"int24"},{"name":"hooks","type":"address","internalType":"contract IHooks"}]},{"name":"params","type":"tuple","internalType":"struct ModifyLiquidityParams","components":[{"name":"tickLower","type":"int24","internalType":"int24"},{"name":"tickUpper","type":"int24","internalType":"int24"},{"name":"liquidityDelta","type":"int256","internalType":"int256"},{"name":"salt","type":"bytes32","internalType":"bytes32"}]},{"name":"delta0","type":"int256","internalType":"BalanceDelta"},{"name":"delta1","type":"int256","internalType":"BalanceDelta"},{"name":"hookData","type":"bytes","internalType":"bytes"}],"outputs":[{"name":"","type":"bytes4","internalType":"bytes4"},{"name":"","type":"int256","internalType":"BalanceDelta"}],"stateMutability":"nonpayable"},{"type":"function","name":"afterSwap","inputs":[{"name":"sender","type":"address","internalType":"address"},{"name":"key","type":"tuple","internalType":"struct PoolKey","components":[{"name":"currency0","type":"address","internalType":"Currency"},{"name":"currency1","type":"address","internalType":"Currency"},{"name":"fee","type":"uint24","internalType":"uint24"},{"name":"tickSpacing","type":"int24","internalType":"int24"},{"name":"hooks","type":"address","internalType":"contract IHooks"}]},{"name":"params","type":"tuple","internalType":"struct SwapParams","components":[{"name":"zeroForOne","type":"bool","internalType":"bool"},{"name":"amountSpecified","type":"int256","internalType":"int256"},{"name":"sqrtPriceLimitX96","type":"uint160","internalType":"uint160"}]},{"name":"delta","type":"int256","internalType":"BalanceDelta"},{"name":"hookData","type":"bytes","internalType":"bytes"}],"outputs":[{"name":"","type":"bytes4","internalType":"bytes4"},{"name":"","type":"int128","internalType":"int128"}],"stateMutability":"nonpayable"},{"type":"function","name":"beforeAddLiquidity","inputs":[{"name":"sender","type":"address","internalType":"address"},{"name":"key","type":"tuple","internalType":"struct PoolKey","components":[{"name":"currency0","type":"address","internalType":"Currency"},{"name":"currency1","type":"address","internalType":"Currency"},{"name":"fee","type":"uint24","internalType":"uint24"},{"name":"tickSpacing","type":"int24","internalType":"int24"},{"name":"hooks","type":"address","internalType":"contract IHooks"}]},{"name":"params","type":"tuple","internalType":"struct ModifyLiquidityParams","components":[{"name":"tickLower","type":"int24","internalType":"int24"},{"name":"tickUpper","type":"int24","internalType":"int24"},{"name":"liquidityDelta","type":"int256","internalType":"int256"},{"name":"salt","type":"bytes32","internalType":"bytes32"}]},{"name":"hookData","type":"bytes","internalType":"bytes"}],"outputs":[{"name":"","type":"bytes4","internalType":"bytes4"}],"stateMutability":"nonpayable"},{"type":"function","name":"beforeDonate","inputs":[{"name":"sender","type":"address","internalType":"address"},{"name":"key","type":"tuple","internalType":"struct PoolKey","components":[{"name":"currency0","type":"address","internalType":"Currency"},{"name":"currency1","type":"address","internalType":"Currency"},{"name":"fee","type":"uint24","internalType":"uint24"},{"name":"tickSpacing","type":"int24","internalType":"int24"},{"name":"hooks","type":"address","internalType":"contract IHooks"}]},{"name":"amount0","type":"uint256","internalType":"uint256"},{"name":"amount1","type":"uint256","internalType":"uint256"},{"name":"hookData","type":"bytes","internalType":"bytes"}],"outputs":[{"name":"","type":"bytes4","internalType":"bytes4"}],"stateMutability":"nonpayable"},{"type":"function","name":"beforeInitialize","inputs":[{"name":"sender","type":"address","internalType":"address"},{"name":"key","type":"tuple","internalType":"struct PoolKey","components":[{"name":"currency0","type":"address","internalType":"Currency"},{"name":"currency1","type":"address","internalType":"Currency"},{"name":"fee","type":"uint24","internalType":"uint24"},{"name":"tickSpacing","type":"int24","internalType":"int24"},{"name":"hooks","type":"address","internalType":"contract IHooks"}]},{"name":"sqrtPriceX96","type":"uint160","internalType":"uint160"}],"outputs":[{"name":"","type":"bytes4","internalType":"bytes4"}],"stateMutability":"nonpayable"},{"type":"function","name":"beforeRemoveLiquidity","inputs":[{"name":"sender","type":"address","internalType":"address"},{"name":"key","type":"tuple","internalType":"struct PoolKey","components":[{"name":"currency0","type":"address","internalType":"Currency"},{"name":"currency1","type":"address","internalType":"Currency"},{"name":"fee","type":"uint24","internalType":"uint24"},{"name":"tickSpacing","type":"int24","internalType":"int24"},{"name":"hooks","type":"address","internalType":"contract IHooks"}]},{"name":"params","type":"tuple","internalType":"struct ModifyLiquidityParams","components":[{"name":"tickLower","type":"int24","internalType":"int24"},{"name":"tickUpper","type":"int24","internalType":"int24"},{"name":"liquidityDelta","type":"int256","internalType":"int256"},{"name":"salt","type":"bytes32","internalType":"bytes32"}]},{"name":"hookData","type":"bytes","internalType":"bytes"}],"outputs":[{"name":"","type":"bytes4","internalType":"bytes4"}],"stateMutability":"nonpayable"},{"type":"function","name":"beforeSwap","inputs":[{"name":"sender","type":"address","internalType":"address"},{"name":"key","type":"tuple","internalType":"struct PoolKey","components":[{"name":"currency0","type":"address","internalType":"Currency"},{"name":"currency1","type":"address","internalType":"Currency"},{"name":"fee","type":"uint24","internalType":"uint24"},{"name":"tickSpacing","type":"int24","internalType":"int24"},{"name":"hooks","type":"address","internalType":"contract IHooks"}]},{"name":"params","type":"tuple","internalType":"struct SwapParams","components":[{"name":"zeroForOne","type":"bool","internalType":"bool"},{"name":"amountSpecified","type":"int256","internalType":"int256"},{"name":"sqrtPriceLimitX96","type":"uint160","internalType":"uint160"}]},{"name":"hookData","type":"bytes","internalType":"bytes"}],"outputs":[{"name":"","type":"bytes4","internalType":"bytes4"},{"name":"","type":"int256","internalType":"BeforeSwapDelta"},{"name":"","type":"uint24","internalType":"uint24"}],"stateMutability":"nonpayable"},{"type":"function","name":"cumulativeVolume","inputs":[{"name":"","type":"bytes32","internalType":"PoolId"}],"outputs":[{"name":"","type":"uint256","internalType":"uint256"}],"stateMutability":"view"},{"type":"function","name":"getHookPermissions","inputs":[],"outputs":[{"name":"","type":"tuple","internalType":"struct Hooks.Permissions","components":[{"name":"beforeInitialize","type":"bool","internalType":"bool"},{"name":"afterInitialize","type":"bool","internalType":"bool"},{"name":"beforeAddLiquidity","type":"bool","internalType":"bool"},{"name":"afterAddLiquidity","type":"bool","internalType":"bool"},{"name":"beforeRemoveLiquidity","type":"bool","internalType":"bool"},{"name":"afterRemoveLiquidity","type":"bool","internalType":"bool"},{"name":"beforeSwap","type":"bool","internalType":"bool"},{"name":"afterSwap","type":"bool","internalType":"bool"},{"name":"beforeDonate","type":"bool","internalType":"bool"},{"name":"afterDonate","type":"bool","internalType":"bool"},{"name":"beforeSwapReturnDelta","type":"bool","internalType":"bool"},{"name":"afterSwapReturnDelta","type":"bool","internalType":"bool"},{"name":"afterAddLiquidityReturnDelta","type":"bool","internalType":"bool"},{"name":"afterRemoveLiquidityReturnDelta","type":"bool","internalType":"bool"}]}],"stateMutability":"pure"},{"type":"function","name":"handleReactiveRebalance","inputs":[{"name":"key","type":"tuple","internalType":"struct PoolKey","components":[{"name":"currency0","type":"address","internalType":"Currency"},{"name":"currency1","type":"address","internalType":"Currency"},{"name":"fee","type":"uint24","internalType":"uint24"},{"name":"tickSpacing","type":"int24","internalType":"int24"},{"name":"hooks","type":"address","internalType":"contract IHooks"}]},{"name":"liquidityAmount","type":"uint128","internalType":"uint128"},{"name":"tickLower","type":"int24","internalType":"int24"},{"name":"tickUpper","type":"int24","internalType":"int24"},{"name":"bridgeData","type":"bytes","internalType":"bytes"}],"outputs":[],"stateMutability":"nonpayable"},{"type":"function","name":"owner","inputs":[],"outputs":[{"name":"","type":"address","internalType":"address"}],"stateMutability":"view"},{"type":"function","name":"paused","inputs":[],"outputs":[{"name":"","type":"bool","internalType":"bool"}],"stateMutability":"view"},{"type":"function","name":"poolFee","inputs":[{"name":"","type":"bytes32","internalType":"PoolId"}],"outputs":[{"name":"","type":"uint24","internalType":"uint24"}],"stateMutability":"view"},{"type":"function","name":"poolManager","inputs":[],"outputs":[{"name":"","type":"address","internalType":"contract IPoolManager"}],"stateMutability":"view"},{"type":"function","name":"reactiveSender","inputs":[],"outputs":[{"name":"","type":"address","internalType":"address"}],"stateMutability":"view"},{"type":"function","name":"setEmergencyPause","inputs":[{"name":"_paused","type":"bool","internalType":"bool"}],"outputs":[],"stateMutability":"nonpayable"},{"type":"function","name":"setReactiveSender","inputs":[{"name":"_newSender","type":"address","internalType":"address"}],"outputs":[],"stateMutability":"nonpayable"},{"type":"function","name":"swapCount","inputs":[{"name":"","type":"bytes32","internalType":"PoolId"}],"outputs":[{"name":"","type":"uint256","internalType":"uint256"}],"stateMutability":"view"},{"type":"function","name":"transferOwnership","inputs":[{"name":"_newOwner","type":"address","internalType":"address"}],"outputs":[],"stateMutability":"nonpayable"},{"type":"function","name":"unlockCallback","inputs":[{"name":"data","type":"bytes","internalType":"bytes"}],"outputs":[{"name":"","type":"bytes","internalType":"bytes"}],"stateMutability":"nonpayable"},{"type":"function","name":"yieldVelocity","inputs":[{"name":"key","type":"tuple","internalType":"struct PoolKey","components":[{"name":"currency0","type":"address","internalType":"Currency"},{"name":"currency1","type":"address","internalType":"Currency"},{"name":"fee","type":"uint24","internalType":"uint24"},{"name":"tickSpacing","type":"int24","internalType":"int24"},{"name":"hooks","type":"address","internalType":"contract IHooks"}]}],"outputs":[{"name":"","type":"uint256","internalType":"uint256"}],"stateMutability":"view"},{"type":"event","name":"BridgeInitiated","inputs":[{"name":"bridgeData","type":"bytes","indexed":false,"internalType":"bytes"}],"anonymous":false},{"type":"event","name":"EmergencyPauseToggled","inputs":[{"name":"paused","type":"bool","indexed":false,"internalType":"bool"}],"anonymous":false},{"type":"event","name":"ReactiveSenderUpdated","inputs":[{"name":"oldSender","type":"address","indexed":true,"internalType":"address"},{"name":"newSender","type":"address","indexed":true,"internalType":"address"}],"anonymous":false},{"type":"event","name":"RebalanceTriggered","inputs":[{"name":"poolId","type":"bytes32","indexed":true,"internalType":"PoolId"},{"name":"liquidity","type":"uint128","indexed":false,"internalType":"uint128"},{"name":"bridgeData","type":"bytes","indexed":false,"internalType":"bytes"}],"anonymous":false},{"type":"error","name":"HookNotImplemented","inputs":[]},{"type":"error","name":"InvalidPool","inputs":[]},{"type":"error","name":"LiquidityWithdrawFailed","inputs":[]},{"type":"error","name":"NotPoolManager","inputs":[]},{"type":"error","name":"NotSelf","inputs":[]},{"type":"error","name":"ReactivePaused","inputs":[]},{"type":"error","name":"SafeCastOverflow","inputs":[]},{"type":"error","name":"Unauthorized","inputs":[]},{"type":"error","name":"ZeroAddress","inputs":[]}],"bytecode":{"object":"0x60a060405234801561000f575f5ffd5b50604051613616380380613616833981810160405281019061003191906106f6565b818073ffffffffffffffffffffffffffffffffffffffff1660808173ffffffffffffffffffffffffffffffffffffffff16815250506100753061016160201b60201c565b505f73ffffffffffffffffffffffffffffffffffffffff168173ffffffffffffffffffffffffffffffffffffffff16036100db576040517fd92e233d00000000000000000000000000000000000000000000000000000000815260040160405180910390fd5b335f5f6101000a81548173ffffffffffffffffffffffffffffffffffffffff021916908373ffffffffffffffffffffffffffffffffffffffff1602179055508060015f6101000a81548173ffffffffffffffffffffffffffffffffffffffff021916908373ffffffffffffffffffffffffffffffffffffffff1602179055505050610734565b61017e8161017361018160201b60201c565b61020a60201b60201c565b50565b6101896105e0565b604051806101c001604052805f151581526020015f151581526020015f151581526020015f151581526020015f151581526020015f151581526020016001151581526020016001151581526020015f151581526020015f151581526020015f151581526020015f151581526020015f151581526020015f1515815250905090565b6102356120008373ffffffffffffffffffffffffffffffffffffffff1661059960201b90919060201c565b1515815f0151151514158061027c57506102706110008373ffffffffffffffffffffffffffffffffffffffff1661059960201b90919060201c565b15158160200151151514155b806102b957506102ad6108008373ffffffffffffffffffffffffffffffffffffffff1661059960201b90919060201c565b15158160400151151514155b806102f657506102ea6104008373ffffffffffffffffffffffffffffffffffffffff1661059960201b90919060201c565b15158160600151151514155b8061033357506103276102008373ffffffffffffffffffffffffffffffffffffffff1661059960201b90919060201c565b15158160800151151514155b8061037057506103646101008373ffffffffffffffffffffffffffffffffffffffff1661059960201b90919060201c565b15158160a00151151514155b806103ac57506103a060808373ffffffffffffffffffffffffffffffffffffffff1661059960201b90919060201c565b15158160c00151151514155b806103e857506103dc60408373ffffffffffffffffffffffffffffffffffffffff1661059960201b90919060201c565b15158160e00151151514155b80610425575061041860208373ffffffffffffffffffffffffffffffffffffffff1661059960201b90919060201c565b1515816101000151151514155b80610462575061045560108373ffffffffffffffffffffffffffffffffffffffff1661059960201b90919060201c565b1515816101200151151514155b8061049f575061049260088373ffffffffffffffffffffffffffffffffffffffff1661059960201b90919060201c565b1515816101400151151514155b806104dc57506104cf60048373ffffffffffffffffffffffffffffffffffffffff1661059960201b90919060201c565b1515816101600151151514155b80610519575061050c60028373ffffffffffffffffffffffffffffffffffffffff1661059960201b90919060201c565b1515816101800151151514155b80610556575061054960018373ffffffffffffffffffffffffffffffffffffffff1661059960201b90919060201c565b1515816101a00151151514155b15610595576105948263e65af6a060e01b7bffffffffffffffffffffffffffffffffffffffffffffffffffffffff19166105be60201b90919060201c565b5b5050565b5f5f82841673ffffffffffffffffffffffffffffffffffffffff161415905092915050565b815f5273ffffffffffffffffffffffffffffffffffffffff811660045260245ffd5b604051806101c001604052805f151581526020015f151581526020015f151581526020015f151581526020015f151581526020015f151581526020015f151581526020015f151581526020015f151581526020015f151581526020015f151581526020015f151581526020015f151581526020015f151581525090565b5f5ffd5b5f73ffffffffffffffffffffffffffffffffffffffff82169050919050565b5f61068a82610661565b9050919050565b5f61069b82610680565b9050919050565b6106ab81610691565b81146106b5575f5ffd5b50565b5f815190506106c6816106a2565b92915050565b6106d581610680565b81146106df575f5ffd5b50565b5f815190506106f0816106cc565b92915050565b5f5f6040838503121561070c5761070b61065d565b5b5f610719858286016106b8565b925050602061072a858286016106e2565b9150509250929050565b608051612e616107b55f395f81816105590152818161065d015281816106fb01528181610aaa01528181610b6201528181610c0701528181610cdd01528181610dfb01528181610ea101528181610f44015281816111450152818161116a01528181611204015281816116bb0152818161178901526118220152612e615ff3fe608060405234801561000f575f5ffd5b5060043610610156575f3560e01c806394168af8116100c1578063d8d1a6571161007a578063d8d1a6571461044f578063dc4c90d31461046b578063dc98354e14610489578063e1b4af69146104b9578063f2fde38b146104e9578063f3703df41461050557610156565b806394168af81461035157806395e09b01146103815780639f063efc1461039f578063b47b2fb1146103d0578063b6a8b0fa14610401578063c4e833ce1461043157610156565b80635c975abb116101135780635c975abb146102545780636c2bbe7e146102725780636fe7e6eb146102a357806388038f71146102d35780638da5cb5b1461030357806391dd73461461032157610156565b80631d5a058d1461015a57806321d0ee701461018a578063259982e5146101ba57806335cf7269146101ea57806356f2051214610206578063575e24b414610222575b5f5ffd5b610174600480360381019061016f9190611b3c565b610535565b6040516101819190611b7f565b60405180910390f35b6101a4600480360381019061019f9190611c71565b61065a565b6040516101b19190611d31565b60405180910390f35b6101d460048036038101906101cf9190611c71565b6106f8565b6040516101e19190611d31565b60405180910390f35b61020460048036038101906101ff9190611dc5565b610796565b005b610220600480360381019061021b9190611e5d565b6108fd565b005b61023c60048036038101906102379190611ea6565b610aa5565b60405161024b93929190611f8b565b60405180910390f35b61025c610b4b565b6040516102699190611fda565b60405180910390f35b61028c6004803603810190610287919061201d565b610b5e565b60405161029a9291906120da565b60405180910390f35b6102bd60048036038101906102b8919061212b565b610c04565b6040516102ca9190611d31565b60405180910390f35b6102ed60048036038101906102e891906121c3565b610ca0565b6040516102fa9190611b7f565b60405180910390f35b61030b610cb5565b60405161031891906121fd565b60405180910390f35b61033b60048036038101906103369190612216565b610cd9565b60405161034891906122d1565b60405180910390f35b61036b600480360381019061036691906121c3565b610dbd565b6040516103789190611b7f565b60405180910390f35b610389610dd2565b60405161039691906121fd565b60405180910390f35b6103b960048036038101906103b4919061201d565b610df7565b6040516103c79291906120da565b60405180910390f35b6103ea60048036038101906103e591906122f1565b610e9d565b6040516103f89291906123a5565b60405180910390f35b61041b600480360381019061041691906123f6565b610f41565b6040516104289190611d31565b60405180910390f35b610439610fe1565b60405161044691906125bb565b60405180910390f35b610469600480360381019061046491906125ff565b61106a565b005b610473611143565b604051610480919061267c565b60405180910390f35b6104a3600480360381019061049e9190612695565b611167565b6040516104b09190611d31565b60405180910390f35b6104d360048036038101906104ce91906123f6565b611201565b6040516104e09190611d31565b60405180910390f35b61050360048036038101906104fe9190611e5d565b6112a1565b005b61051f600480360381019061051a91906121c3565b6113cd565b60405161052c91906126e5565b60405180910390f35b5f5f6105508380360381019061054b9190612892565b6113ec565b90505f61059c827f000000000000000000000000000000000000000000000000000000000000000073ffffffffffffffffffffffffffffffffffffffff166113f890919063ffffffff16565b90505f5f60045f8581526020019081526020015f205f9054906101000a900462ffffff1662ffffff16146105ef5760045f8481526020019081526020015f205f9054906101000a900462ffffff16610603565b84604001602081019061060291906128bd565b5b90506001826fffffffffffffffffffffffffffffffff166106249190612915565b8162ffffff1660025f8681526020019081526020015f20546106469190612948565b61065091906129b6565b9350505050919050565b5f7f000000000000000000000000000000000000000000000000000000000000000073ffffffffffffffffffffffffffffffffffffffff163373ffffffffffffffffffffffffffffffffffffffff16146106e0576040517fae18210a00000000000000000000000000000000000000000000000000000000815260040160405180910390fd5b6106ed868686868661149d565b905095945050505050565b5f7f000000000000000000000000000000000000000000000000000000000000000073ffffffffffffffffffffffffffffffffffffffff163373ffffffffffffffffffffffffffffffffffffffff161461077e576040517fae18210a00000000000000000000000000000000000000000000000000000000815260040160405180910390fd5b61078b86868686866114d0565b905095945050505050565b60015f9054906101000a900473ffffffffffffffffffffffffffffffffffffffff1673ffffffffffffffffffffffffffffffffffffffff163373ffffffffffffffffffffffffffffffffffffffff161461081c576040517f82b4290000000000000000000000000000000000000000000000000000000000815260040160405180910390fd5b600160149054906101000a900460ff1615610863576040517fce8119ec00000000000000000000000000000000000000000000000000000000815260040160405180910390fd5b5f61087d878036038101906108789190612892565b6113ec565b9050807fd10c06189746792592951dcab9c3539a79b28ff20b41b02192b1e172258570828785856040516108b393929190612a2f565b60405180910390a27f24b4ba7a64b8d36c46ac27e3968f1a15819cccab0bcd3538a6c6f3b213fb09ef83836040516108ec929190612a5f565b60405180910390a150505050505050565b5f5f9054906101000a900473ffffffffffffffffffffffffffffffffffffffff1673ffffffffffffffffffffffffffffffffffffffff163373ffffffffffffffffffffffffffffffffffffffff1614610982576040517f82b4290000000000000000000000000000000000000000000000000000000000815260040160405180910390fd5b5f73ffffffffffffffffffffffffffffffffffffffff168173ffffffffffffffffffffffffffffffffffffffff16036109e7576040517fd92e233d00000000000000000000000000000000000000000000000000000000815260040160405180910390fd5b8073ffffffffffffffffffffffffffffffffffffffff1660015f9054906101000a900473ffffffffffffffffffffffffffffffffffffffff1673ffffffffffffffffffffffffffffffffffffffff167f53daf07ee0d544a6f1351b3ffd1ae53c39ab35c7dbe66d472bf8ecfb1036c9cf60405160405180910390a38060015f6101000a81548173ffffffffffffffffffffffffffffffffffffffff021916908373ffffffffffffffffffffffffffffffffffffffff16021790555050565b5f5f5f7f000000000000000000000000000000000000000000000000000000000000000073ffffffffffffffffffffffffffffffffffffffff163373ffffffffffffffffffffffffffffffffffffffff1614610b2d576040517fae18210a00000000000000000000000000000000000000000000000000000000815260040160405180910390fd5b610b3a8888888888611503565b925092509250955095509592505050565b600160149054906101000a900460ff1681565b5f5f7f000000000000000000000000000000000000000000000000000000000000000073ffffffffffffffffffffffffffffffffffffffff163373ffffffffffffffffffffffffffffffffffffffff1614610be5576040517fae18210a00000000000000000000000000000000000000000000000000000000815260040160405180910390fd5b610bf4898989898989896115a9565b9150915097509795505050505050565b5f7f000000000000000000000000000000000000000000000000000000000000000073ffffffffffffffffffffffffffffffffffffffff163373ffffffffffffffffffffffffffffffffffffffff1614610c8a576040517fae18210a00000000000000000000000000000000000000000000000000000000815260040160405180910390fd5b610c96858585856115dd565b9050949350505050565b6002602052805f5260405f205f915090505481565b5f5f9054906101000a900473ffffffffffffffffffffffffffffffffffffffff1681565b60607f000000000000000000000000000000000000000000000000000000000000000073ffffffffffffffffffffffffffffffffffffffff163373ffffffffffffffffffffffffffffffffffffffff1614610d60576040517f82b4290000000000000000000000000000000000000000000000000000000000815260040160405180910390fd5b5f5f5f5f8686810190610d739190612a81565b93509350935093505f5f610d8986868686611610565b915091508181604051602001610da0929190612ae6565b604051602081830303815290604052965050505050505092915050565b6003602052805f5260405f205f915090505481565b60015f9054906101000a900473ffffffffffffffffffffffffffffffffffffffff1681565b5f5f7f000000000000000000000000000000000000000000000000000000000000000073ffffffffffffffffffffffffffffffffffffffff163373ffffffffffffffffffffffffffffffffffffffff1614610e7e576040517fae18210a00000000000000000000000000000000000000000000000000000000815260040160405180910390fd5b610e8d898989898989896118ba565b9150915097509795505050505050565b5f5f7f000000000000000000000000000000000000000000000000000000000000000073ffffffffffffffffffffffffffffffffffffffff163373ffffffffffffffffffffffffffffffffffffffff1614610f24576040517fae18210a00000000000000000000000000000000000000000000000000000000815260040160405180910390fd5b610f328888888888886118ee565b91509150965096945050505050565b5f7f000000000000000000000000000000000000000000000000000000000000000073ffffffffffffffffffffffffffffffffffffffff163373ffffffffffffffffffffffffffffffffffffffff1614610fc7576040517fae18210a00000000000000000000000000000000000000000000000000000000815260040160405180910390fd5b610fd58787878787876119a7565b90509695505050505050565b610fe9611a8c565b604051806101c001604052805f151581526020015f151581526020015f151581526020015f151581526020015f151581526020015f151581526020016001151581526020016001151581526020015f151581526020015f151581526020015f151581526020015f151581526020015f151581526020015f1515815250905090565b5f5f9054906101000a900473ffffffffffffffffffffffffffffffffffffffff1673ffffffffffffffffffffffffffffffffffffffff163373ffffffffffffffffffffffffffffffffffffffff16146110ef576040517f82b4290000000000000000000000000000000000000000000000000000000000815260040160405180910390fd5b80600160146101000a81548160ff0219169083151502179055507fb5838f871ddee4623a406029b1a0b6013e0ec30f2dc114307f21459a800a8296816040516111389190611fda565b60405180910390a150565b7f000000000000000000000000000000000000000000000000000000000000000081565b5f7f000000000000000000000000000000000000000000000000000000000000000073ffffffffffffffffffffffffffffffffffffffff163373ffffffffffffffffffffffffffffffffffffffff16146111ed576040517fae18210a00000000000000000000000000000000000000000000000000000000815260040160405180910390fd5b6111f88484846119da565b90509392505050565b5f7f000000000000000000000000000000000000000000000000000000000000000073ffffffffffffffffffffffffffffffffffffffff163373ffffffffffffffffffffffffffffffffffffffff1614611287576040517fae18210a00000000000000000000000000000000000000000000000000000000815260040160405180910390fd5b611295878787878787611a0d565b90509695505050505050565b5f5f9054906101000a900473ffffffffffffffffffffffffffffffffffffffff1673ffffffffffffffffffffffffffffffffffffffff163373ffffffffffffffffffffffffffffffffffffffff1614611326576040517f82b4290000000000000000000000000000000000000000000000000000000000815260040160405180910390fd5b5f73ffffffffffffffffffffffffffffffffffffffff168173ffffffffffffffffffffffffffffffffffffffff160361138b576040517fd92e233d00000000000000000000000000000000000000000000000000000000815260040160405180910390fd5b805f5f6101000a81548173ffffffffffffffffffffffffffffffffffffffff021916908373ffffffffffffffffffffffffffffffffffffffff16021790555050565b6004602052805f5260405f205f915054906101000a900462ffffff1681565b5f60a082209050919050565b5f5f61140383611a40565b90505f6003825f1c6114159190612915565b5f1b90508473ffffffffffffffffffffffffffffffffffffffff16631e2eaeaf826040518263ffffffff1660e01b81526004016114529190612b1c565b602060405180830381865afa15801561146d573d5f5f3e3d5ffd5b505050506040513d601f19601f820116820180604052508101906114919190612b5f565b5f1c9250505092915050565b5f6040517f0a85dc2900000000000000000000000000000000000000000000000000000000815260040160405180910390fd5b5f6040517f0a85dc2900000000000000000000000000000000000000000000000000000000815260040160405180910390fd5b5f5f5f5f6115208880360381019061151b9190612892565b6113ec565b90505f60045f8381526020019081526020015f205f9054906101000a900462ffffff1662ffffff160361158d5787604001602081019061156091906128bd565b60045f8381526020019081526020015f205f6101000a81548162ffffff021916908362ffffff1602179055505b63575e24b460e01b5f5f93509350935050955095509592505050565b5f5f6040517f0a85dc2900000000000000000000000000000000000000000000000000000000815260040160405180910390fd5b5f6040517f0a85dc2900000000000000000000000000000000000000000000000000000000815260040160405180910390fd5b5f5f6f7fffffffffffffffffffffffffffffff6fffffffffffffffffffffffffffffffff16856fffffffffffffffffffffffffffffffff161115611680576040517f93dafdf100000000000000000000000000000000000000000000000000000000815260040160405180910390fd5b5f60405180608001604052808660020b81526020018560020b8152602001876116a890612b8a565b600f0b81526020015f5f1b81525090505f7f000000000000000000000000000000000000000000000000000000000000000073ffffffffffffffffffffffffffffffffffffffff16635a6bcfda898460405180602001604052805f8152506040518463ffffffff1660e01b815260040161172493929190612d05565b60408051808303815f875af115801561173f573d5f5f3e3d5ffd5b505050506040513d601f19601f820116820180604052508101906117639190612d57565b91505061176f81611a74565b935061177a81611a80565b92505f84600f0b1315611815577f000000000000000000000000000000000000000000000000000000000000000073ffffffffffffffffffffffffffffffffffffffff16630b0d9c09895f015130876040518463ffffffff1660e01b81526004016117e793929190612dd4565b5f604051808303815f87803b1580156117fe575f5ffd5b505af1158015611810573d5f5f3e3d5ffd5b505050505b5f83600f0b13156118af577f000000000000000000000000000000000000000000000000000000000000000073ffffffffffffffffffffffffffffffffffffffff16630b0d9c09896020015130866040518463ffffffff1660e01b815260040161188193929190612dd4565b5f604051808303815f87803b158015611898575f5ffd5b505af11580156118aa573d5f5f3e3d5ffd5b505050505b505094509492505050565b5f5f6040517f0a85dc2900000000000000000000000000000000000000000000000000000000815260040160405180910390fd5b5f5f5f61190a888036038101906119059190612892565b6113ec565b90505f61191687611a74565b90505f81600f0b1261193a57806fffffffffffffffffffffffffffffffff16611950565b805f036fffffffffffffffffffffffffffffffff165b60025f8481526020019081526020015f205f828254019250508190555060035f8381526020019081526020015f205f81548092919060010191905055505063b47b2fb160e01b5f9250925050965096945050505050565b5f6040517f0a85dc2900000000000000000000000000000000000000000000000000000000815260040160405180910390fd5b5f6040517f0a85dc2900000000000000000000000000000000000000000000000000000000815260040160405180910390fd5b5f6040517f0a85dc2900000000000000000000000000000000000000000000000000000000815260040160405180910390fd5b5f8160065f1b604051602001611a57929190612e29565b604051602081830303815290604052805190602001209050919050565b5f8160801d9050919050565b5f81600f0b9050919050565b604051806101c001604052805f151581526020015f151581526020015f151581526020015f151581526020015f151581526020015f151581526020015f151581526020015f151581526020015f151581526020015f151581526020015f151581526020015f151581526020015f151581526020015f151581525090565b5f604051905090565b5f5ffd5b5f5ffd5b5f5ffd5b5f60a08284031215611b3357611b32611b1a565b5b81905092915050565b5f60a08284031215611b5157611b50611b12565b5b5f611b5e84828501611b1e565b91505092915050565b5f819050919050565b611b7981611b67565b82525050565b5f602082019050611b925f830184611b70565b92915050565b5f73ffffffffffffffffffffffffffffffffffffffff82169050919050565b5f611bc182611b98565b9050919050565b611bd181611bb7565b8114611bdb575f5ffd5b50565b5f81359050611bec81611bc8565b92915050565b5f60808284031215611c0757611c06611b1a565b5b81905092915050565b5f5ffd5b5f5ffd5b5f5ffd5b5f5f83601f840112611c3157611c30611c10565b5b8235905067ffffffffffffffff811115611c4e57611c4d611c14565b5b602083019150836001820283011115611c6a57611c69611c18565b5b9250929050565b5f5f5f5f5f6101608688031215611c8b57611c8a611b12565b5b5f611c9888828901611bde565b9550506020611ca988828901611b1e565b94505060c0611cba88828901611bf2565b93505061014086013567ffffffffffffffff811115611cdc57611cdb611b16565b5b611ce888828901611c1c565b92509250509295509295909350565b5f7fffffffff0000000000000000000000000000000000000000000000000000000082169050919050565b611d2b81611cf7565b82525050565b5f602082019050611d445f830184611d22565b92915050565b5f6fffffffffffffffffffffffffffffffff82169050919050565b611d6e81611d4a565b8114611d78575f5ffd5b50565b5f81359050611d8981611d65565b92915050565b5f8160020b9050919050565b611da481611d8f565b8114611dae575f5ffd5b50565b5f81359050611dbf81611d9b565b92915050565b5f5f5f5f5f5f6101208789031215611de057611ddf611b12565b5b5f611ded89828a01611b1e565b96505060a0611dfe89828a01611d7b565b95505060c0611e0f89828a01611db1565b94505060e0611e2089828a01611db1565b93505061010087013567ffffffffffffffff811115611e4257611e41611b16565b5b611e4e89828a01611c1c565b92509250509295509295509295565b5f60208284031215611e7257611e71611b12565b5b5f611e7f84828501611bde565b91505092915050565b5f60608284031215611e9d57611e9c611b1a565b5b81905092915050565b5f5f5f5f5f6101408688031215611ec057611ebf611b12565b5b5f611ecd88828901611bde565b9550506020611ede88828901611b1e565b94505060c0611eef88828901611e88565b93505061012086013567ffffffffffffffff811115611f1157611f10611b16565b5b611f1d88828901611c1c565b92509250509295509295909350565b5f819050919050565b5f819050919050565b5f611f58611f53611f4e84611f2c565b611f35565b611f2c565b9050919050565b611f6881611f3e565b82525050565b5f62ffffff82169050919050565b611f8581611f6e565b82525050565b5f606082019050611f9e5f830186611d22565b611fab6020830185611f5f565b611fb86040830184611f7c565b949350505050565b5f8115159050919050565b611fd481611fc0565b82525050565b5f602082019050611fed5f830184611fcb565b92915050565b611ffc81611f2c565b8114612006575f5ffd5b50565b5f8135905061201781611ff3565b92915050565b5f5f5f5f5f5f5f6101a0888a03121561203957612038611b12565b5b5f6120468a828b01611bde565b97505060206120578a828b01611b1e565b96505060c06120688a828b01611bf2565b95505061014061207a8a828b01612009565b94505061016061208c8a828b01612009565b93505061018088013567ffffffffffffffff8111156120ae576120ad611b16565b5b6120ba8a828b01611c1c565b925092505092959891949750929550565b6120d481611f3e565b82525050565b5f6040820190506120ed5f830185611d22565b6120fa60208301846120cb565b9392505050565b61210a81611b98565b8114612114575f5ffd5b50565b5f8135905061212581612101565b92915050565b5f5f5f5f610100858703121561214457612143611b12565b5b5f61215187828801611bde565b945050602061216287828801611b1e565b93505060c061217387828801612117565b92505060e061218487828801611db1565b91505092959194509250565b5f819050919050565b6121a281612190565b81146121ac575f5ffd5b50565b5f813590506121bd81612199565b92915050565b5f602082840312156121d8576121d7611b12565b5b5f6121e5848285016121af565b91505092915050565b6121f781611bb7565b82525050565b5f6020820190506122105f8301846121ee565b92915050565b5f5f6020838503121561222c5761222b611b12565b5b5f83013567ffffffffffffffff81111561224957612248611b16565b5b61225585828601611c1c565b92509250509250929050565b5f81519050919050565b5f82825260208201905092915050565b8281835e5f83830152505050565b5f601f19601f8301169050919050565b5f6122a382612261565b6122ad818561226b565b93506122bd81856020860161227b565b6122c681612289565b840191505092915050565b5f6020820190508181035f8301526122e98184612299565b905092915050565b5f5f5f5f5f5f610160878903121561230c5761230b611b12565b5b5f61231989828a01611bde565b965050602061232a89828a01611b1e565b95505060c061233b89828a01611e88565b94505061012061234d89828a01612009565b93505061014087013567ffffffffffffffff81111561236f5761236e611b16565b5b61237b89828a01611c1c565b92509250509295509295509295565b5f81600f0b9050919050565b61239f8161238a565b82525050565b5f6040820190506123b85f830185611d22565b6123c56020830184612396565b9392505050565b6123d581611b67565b81146123df575f5ffd5b50565b5f813590506123f0816123cc565b92915050565b5f5f5f5f5f5f610120878903121561241157612410611b12565b5b5f61241e89828a01611bde565b965050602061242f89828a01611b1e565b95505060c061244089828a016123e2565b94505060e061245189828a016123e2565b93505061010087013567ffffffffffffffff81111561247357612472611b16565b5b61247f89828a01611c1c565b92509250509295509295509295565b61249781611fc0565b82525050565b6101c082015f8201516124b25f85018261248e565b5060208201516124c5602085018261248e565b5060408201516124d8604085018261248e565b5060608201516124eb606085018261248e565b5060808201516124fe608085018261248e565b5060a082015161251160a085018261248e565b5060c082015161252460c085018261248e565b5060e082015161253760e085018261248e565b5061010082015161254c61010085018261248e565b5061012082015161256161012085018261248e565b5061014082015161257661014085018261248e565b5061016082015161258b61016085018261248e565b506101808201516125a061018085018261248e565b506101a08201516125b56101a085018261248e565b50505050565b5f6101c0820190506125cf5f83018461249d565b92915050565b6125de81611fc0565b81146125e8575f5ffd5b50565b5f813590506125f9816125d5565b92915050565b5f6020828403121561261457612613611b12565b5b5f612621848285016125eb565b91505092915050565b5f61264461263f61263a84611b98565b611f35565b611b98565b9050919050565b5f6126558261262a565b9050919050565b5f6126668261264b565b9050919050565b6126768161265c565b82525050565b5f60208201905061268f5f83018461266d565b92915050565b5f5f5f60e084860312156126ac576126ab611b12565b5b5f6126b986828701611bde565b93505060206126ca86828701611b1e565b92505060c06126db86828701612117565b9150509250925092565b5f6020820190506126f85f830184611f7c565b92915050565b5f5ffd5b7f4e487b71000000000000000000000000000000000000000000000000000000005f52604160045260245ffd5b61273882612289565b810181811067ffffffffffffffff8211171561275757612756612702565b5b80604052505050565b5f612769611b09565b9050612775828261272f565b919050565b61278381611bb7565b811461278d575f5ffd5b50565b5f8135905061279e8161277a565b92915050565b6127ad81611f6e565b81146127b7575f5ffd5b50565b5f813590506127c8816127a4565b92915050565b5f6127d882611bb7565b9050919050565b6127e8816127ce565b81146127f2575f5ffd5b50565b5f81359050612803816127df565b92915050565b5f60a0828403121561281e5761281d6126fe565b5b61282860a0612760565b90505f61283784828501612790565b5f83015250602061284a84828501612790565b602083015250604061285e848285016127ba565b604083015250606061287284828501611db1565b6060830152506080612886848285016127f5565b60808301525092915050565b5f60a082840312156128a7576128a6611b12565b5b5f6128b484828501612809565b91505092915050565b5f602082840312156128d2576128d1611b12565b5b5f6128df848285016127ba565b91505092915050565b7f4e487b71000000000000000000000000000000000000000000000000000000005f52601160045260245ffd5b5f61291f82611b67565b915061292a83611b67565b9250828201905080821115612942576129416128e8565b5b92915050565b5f61295282611b67565b915061295d83611b67565b925082820261296b81611b67565b91508282048414831517612982576129816128e8565b5b5092915050565b7f4e487b71000000000000000000000000000000000000000000000000000000005f52601260045260245ffd5b5f6129c082611b67565b91506129cb83611b67565b9250826129db576129da612989565b5b828204905092915050565b6129ef81611d4a565b82525050565b828183375f83830152505050565b5f612a0e838561226b565b9350612a1b8385846129f5565b612a2483612289565b840190509392505050565b5f604082019050612a425f8301866129e6565b8181036020830152612a55818486612a03565b9050949350505050565b5f6020820190508181035f830152612a78818486612a03565b90509392505050565b5f5f5f5f6101008587031215612a9a57612a99611b12565b5b5f612aa787828801612809565b94505060a0612ab887828801611d7b565b93505060c0612ac987828801611db1565b92505060e0612ada87828801611db1565b91505092959194509250565b5f604082019050612af95f830185612396565b612b066020830184612396565b9392505050565b612b1681612190565b82525050565b5f602082019050612b2f5f830184612b0d565b92915050565b612b3e81612190565b8114612b48575f5ffd5b50565b5f81519050612b5981612b35565b92915050565b5f60208284031215612b7457612b73611b12565b5b5f612b8184828501612b4b565b91505092915050565b5f612b948261238a565b91507fffffffffffffffffffffffffffffffff800000000000000000000000000000008203612bc657612bc56128e8565b5b815f039050919050565b5f612bda8261264b565b9050919050565b612bea81612bd0565b82525050565b612bf981611f6e565b82525050565b612c0881611d8f565b82525050565b5f612c188261264b565b9050919050565b612c2881612c0e565b82525050565b60a082015f820151612c425f850182612be1565b506020820151612c556020850182612be1565b506040820151612c686040850182612bf0565b506060820151612c7b6060850182612bff565b506080820151612c8e6080850182612c1f565b50505050565b612c9d81611f2c565b82525050565b612cac81612190565b82525050565b608082015f820151612cc65f850182612bff565b506020820151612cd96020850182612bff565b506040820151612cec6040850182612c94565b506060820151612cff6060850182612ca3565b50505050565b5f61014082019050612d195f830186612c2e565b612d2660a0830185612cb2565b818103610120830152612d398184612299565b9050949350505050565b5f81519050612d5181611ff3565b92915050565b5f5f60408385031215612d6d57612d6c611b12565b5b5f612d7a85828601612d43565b9250506020612d8b85828601612d43565b9150509250929050565b612d9e81612bd0565b82525050565b5f612dbe612db9612db484611d4a565b611f35565b611b67565b9050919050565b612dce81612da4565b82525050565b5f606082019050612de75f830186612d95565b612df460208301856121ee565b612e016040830184612dc5565b949350505050565b5f819050919050565b612e23612e1e82612190565b612e09565b82525050565b5f612e348285612e12565b602082019150612e448284612e12565b602082019150819050939250505056fea164736f6c634300081e000a","linkReferences":{}},"methodIdentifiers":{"afterAddLiquidity(address,(address,address,uint24,int24,address),(int24,int24,int256,bytes32),int256,int256,bytes)":"9f063efc","afterDonate(address,(address,address,uint24,int24,address),uint256,uint256,bytes)":"e1b4af69","afterInitialize(address,(address,address,uint24,int24,address),uint160,int24)":"6fe7e6eb","afterRemoveLiquidity(address,(address,address,uint24,int24,address),(int24,int24,int256,bytes32),int256,int256,bytes)":"6c2bbe7e","afterSwap(address,(address,address,uint24,int24,address),(bool,int256,uint160),int256,bytes)":"b47b2fb1","beforeAddLiquidity(address,(address,address,uint24,int24,address),(int24,int24,int256,bytes32),bytes)":"259982e5","beforeDonate(address,(address,address,uint24,int24,address),uint256,uint256,bytes)":"b6a8b0fa","beforeInitialize(address,(address,address,uint24,int24,address),uint160)":"dc98354e","beforeRemoveLiquidity(address,(address,address,uint24,int24,address),(int24,int24,int256,bytes32),bytes)":"21d0ee70","beforeSwap(address,(address,address,uint24,int24,address),(bool,int256,uint160),bytes)":"575e24b4","cumulativeVolume(bytes32)":"88038f71","getHookPermissions()":"c4e833ce","handleReactiveRebalance((address,address,uint24,int24,address),uint128,int24,int24,bytes)":"35cf7269","owner()":"8da5cb5b","paused()":"5c975abb","poolFee(bytes32)":"f3703df4","poolManager()":"dc4c90d3","reactiveSender()":"95e09b01","setEmergencyPause(bool)":"d8d1a657","setReactiveSender(address)":"56f20512","swapCount(bytes32)":"94168af8","transferOwnership(address)":"f2fde38b","unlockCallback(bytes)":"91dd7346","yieldVelocity((address,address,uint24,int24,address))":"1d5a058d"},"id":74}