{"abi":[{"type":"constructor","inputs":[{"name":"_kineticCallback","type":"address","internalType":"address"},{"name":"_destinationChainId","type":"uint256","internalType":"uint256"},{"name":"_yieldThreshold","type":"uint256","internalType":"uint256"},{"name":"_minConfidenceScore","type":"uint256","internalType":"uint256"},{"name":"_localPool","type":"address","internalType":"address"},{"name":"_localPoolFee","type":"uint256","internalType":"uint256"}],"stateMutability":"payable"},{"type":"receive","stateMutability":"payable"},{"type":"function","name":"CALLBACK_GAS_LIMIT","inputs":[],"outputs":[{"name":"","type":"uint64","internalType":"uint64"}],"stateMutability":"view"},{"type":"function","name":"UNISWAP_V4_SWAP_TOPIC_0","inputs":[],"outputs":[{"name":"","type":"uint256","internalType":"uint256"}],"stateMutability":"view"},{"type":"function","name":"aiModelHash","inputs":[],"outputs":[{"name":"","type":"bytes32","internalType":"bytes32"}],"stateMutability":"view"},{"type":"function","name":"coverDebt","inputs":[],"outputs":[],"stateMutability":"nonpayable"},{"type":"function","name":"cumulativeVolume","inputs":[{"name":"","type":"address","internalType":"address"}],"outputs":[{"name":"","type":"uint256","internalType":"uint256"}],"stateMutability":"view"},{"type":"function","name":"destinationChainId","inputs":[],"outputs":[{"name":"","type":"uint256","internalType":"uint256"}],"stateMutability":"view"},{"type":"function","name":"kineticCallback","inputs":[],"outputs":[{"name":"","type":"address","internalType":"address"}],"stateMutability":"view"},{"type":"function","name":"lastYieldVelocity","inputs":[{"name":"","type":"address","internalType":"address"}],"outputs":[{"name":"","type":"uint256","internalType":"uint256"}],"stateMutability":"view"},{"type":"function","name":"localCumulativeVolume","inputs":[],"outputs":[{"name":"","type":"uint256","internalType":"uint256"}],"stateMutability":"view"},{"type":"function","name":"localPool","inputs":[],"outputs":[{"name":"","type":"address","internalType":"address"}],"stateMutability":"view"},{"type":"function","name":"localPoolFee","inputs":[],"outputs":[{"name":"","type":"uint256","internalType":"uint256"}],"stateMutability":"view"},{"type":"function","name":"localSwapCount","inputs":[],"outputs":[{"name":"","type":"uint256","internalType":"uint256"}],"stateMutability":"view"},{"type":"function","name":"minConfidenceScore","inputs":[],"outputs":[{"name":"","type":"uint256","internalType":"uint256"}],"stateMutability":"view"},{"type":"function","name":"owner","inputs":[],"outputs":[{"name":"","type":"address","internalType":"address"}],"stateMutability":"view"},{"type":"function","name":"pay","inputs":[{"name":"amount","type":"uint256","internalType":"uint256"}],"outputs":[],"stateMutability":"nonpayable"},{"type":"function","name":"poolChainId","inputs":[{"name":"","type":"address","internalType":"address"}],"outputs":[{"name":"","type":"uint256","internalType":"uint256"}],"stateMutability":"view"},{"type":"function","name":"poolFee","inputs":[{"name":"","type":"address","internalType":"address"}],"outputs":[{"name":"","type":"uint256","internalType":"uint256"}],"stateMutability":"view"},{"type":"function","name":"react","inputs":[{"name":"log","type":"tuple","internalType":"struct IReactive.LogRecord","components":[{"name":"chain_id","type":"uint256","internalType":"uint256"},{"name":"_contract","type":"address","internalType":"address"},{"name":"topic_0","type":"uint256","internalType":"uint256"},{"name":"topic_1","type":"uint256","internalType":"uint256"},{"name":"topic_2","type":"uint256","internalType":"uint256"},{"name":"topic_3","type":"uint256","internalType":"uint256"},{"name":"data","type":"bytes","internalType":"bytes"},{"name":"block_number","type":"uint256","internalType":"uint256"},{"name":"op_code","type":"uint256","internalType":"uint256"},{"name":"block_hash","type":"uint256","internalType":"uint256"},{"name":"tx_hash","type":"uint256","internalType":"uint256"},{"name":"log_index","type":"uint256","internalType":"uint256"}]}],"outputs":[],"stateMutability":"nonpayable"},{"type":"function","name":"swapCount","inputs":[{"name":"","type":"address","internalType":"address"}],"outputs":[{"name":"","type":"uint256","internalType":"uint256"}],"stateMutability":"view"},{"type":"function","name":"transferOwnership","inputs":[{"name":"_newOwner","type":"address","internalType":"address"}],"outputs":[],"stateMutability":"nonpayable"},{"type":"function","name":"updateKineticCallback","inputs":[{"name":"_newCallback","type":"address","internalType":"address"}],"outputs":[],"stateMutability":"nonpayable"},{"type":"function","name":"updateLocalPool","inputs":[{"name":"_newLocalPool","type":"address","internalType":"address"},{"name":"_newLocalFee","type":"uint256","internalType":"uint256"}],"outputs":[],"stateMutability":"nonpayable"},{"type":"function","name":"updateStrategy","inputs":[{"name":"_newYieldThreshold","type":"uint256","internalType":"uint256"},{"name":"_newMinConfidenceScore","type":"uint256","internalType":"uint256"},{"name":"_aiModelHash","type":"bytes32","internalType":"bytes32"}],"outputs":[],"stateMutability":"nonpayable"},{"type":"function","name":"wouldTriggerRebalance","inputs":[{"name":"pool","type":"address","internalType":"address"},{"name":"currentLiquidity","type":"uint128","internalType":"uint128"}],"outputs":[{"name":"","type":"bool","internalType":"bool"}],"stateMutability":"view"},{"type":"function","name":"yieldThreshold","inputs":[],"outputs":[{"name":"","type":"uint256","internalType":"uint256"}],"stateMutability":"view"},{"type":"function","name":"yieldVelocityComparison","inputs":[{"name":"pool","type":"address","internalType":"address"},{"name":"currentLiquidity","type":"uint128","internalType":"uint128"}],"outputs":[{"name":"sourceYV","type":"uint256","internalType":"uint256"},{"name":"localYV","type":"uint256","internalType":"uint256"},{"name":"ratioBps","type":"uint256","internalType":"uint256"}],"stateMutability":"view"},{"type":"event","name":"Callback","inputs":[{"name":"chain_id","type":"uint256","indexed":true,"internalType":"uint256"},{"name":"_contract","type":"address","indexed":true,"internalType":"address"},{"name":"gas_limit","type":"uint64","indexed":true,"internalType":"uint64"},{"name":"payload","type":"bytes","indexed":false,"internalType":"bytes"}],"anonymous":false},{"type":"event","name":"LocalPoolUpdated","inputs":[{"name":"newLocalPool","type":"address","indexed":false,"internalType":"address"},{"name":"localFee","type":"uint256","indexed":false,"internalType":"uint256"}],"anonymous":false},{"type":"event","name":"RebalanceDispatched","inputs":[{"name":"sourceChainId","type":"uint256","indexed":true,"internalType":"uint256"},{"name":"sourcePool","type":"address","indexed":true,"internalType":"address"},{"name":"sourceYieldVelocity","type":"uint256","indexed":false,"internalType":"uint256"},{"name":"localYieldVelocity","type":"uint256","indexed":false,"internalType":"uint256"}],"anonymous":false},{"type":"event","name":"StrategyUpdated","inputs":[{"name":"newYieldThreshold","type":"uint256","indexed":false,"internalType":"uint256"},{"name":"newMinConfidenceScore","type":"uint256","indexed":false,"internalType":"uint256"},{"name":"aiModelHash","type":"bytes32","indexed":false,"internalType":"bytes32"}],"anonymous":false},{"type":"event","name":"SwapObserved","inputs":[{"name":"chainId","type":"uint256","indexed":true,"internalType":"uint256"},{"name":"poolAddress","type":"address","indexed":true,"internalType":"address"},{"name":"volume","type":"uint256","indexed":false,"internalType":"uint256"},{"name":"computedYieldVelocity","type":"uint256","indexed":false,"internalType":"uint256"}],"anonymous":false},{"type":"error","name":"InvalidParameters","inputs":[]},{"type":"error","name":"Unauthorized","inputs":[]},{"type":"error","name":"ZeroAddress","inputs":[]}],"bytecode":{"object":"0x60806040526040516129e13803806129e183398181016040528101906100259190610496565b62ffffff600260016101000a81548173ffffffffffffffffffffffffffffffffffffffff021916908373ffffffffffffffffffffffffffffffffffffffff16021790555f5f6101000a81548173ffffffffffffffffffffffffffffffffffffffff021916908373ffffffffffffffffffffffffffffffffffffffff1602179055506100b862ffffff61038860201b60201c565b6100c66103df60201b60201c565b5f73ffffffffffffffffffffffffffffffffffffffff168673ffffffffffffffffffffffffffffffffffffffff16148061012b57505f73ffffffffffffffffffffffffffffffffffffffff168273ffffffffffffffffffffffffffffffffffffffff16145b15610162576040517fd92e233d00000000000000000000000000000000000000000000000000000000815260040160405180910390fd5b5f840361019b576040517fe523909000000000000000000000000000000000000000000000000000000000815260040160405180910390fd5b3360035f6101000a81548173ffffffffffffffffffffffffffffffffffffffff021916908373ffffffffffffffffffffffffffffffffffffffff1602179055508560045f6101000a81548173ffffffffffffffffffffffffffffffffffffffff021916908373ffffffffffffffffffffffffffffffffffffffff16021790555084600581905550836006819055508260078190555081600e5f6101000a81548173ffffffffffffffffffffffffffffffffffffffff021916908373ffffffffffffffffffffffffffffffffffffffff16021790555080600f8190555060025f9054906101000a900460ff1661037d57600260019054906101000a900473ffffffffffffffffffffffffffffffffffffffff1673ffffffffffffffffffffffffffffffffffffffff16635a6aced05f5f7f40e9cecb9f5f1f1c5b9c97dec2917b7ee92e57ba5563708daca2ac007aab8be07fa65f96fc951c35ead38878e0f0b7a3c744a6f5ccc1476b313353ce31712313ad807fa65f96fc951c35ead38878e0f0b7a3c744a6f5ccc1476b313353ce31712313ad6040518763ffffffff1660e01b815260040161034f9695949392919061057f565b5f604051808303815f87803b158015610366575f5ffd5b505af1158015610378573d5f5f3e3d5ffd5b505050505b5050505050506105de565b6001805f8373ffffffffffffffffffffffffffffffffffffffff1673ffffffffffffffffffffffffffffffffffffffff1681526020019081526020015f205f6101000a81548160ff02191690831515021790555050565b5f62ffffff3b90505f811460025f6101000a81548160ff02191690831515021790555050565b5f5ffd5b5f73ffffffffffffffffffffffffffffffffffffffff82169050919050565b5f61043282610409565b9050919050565b61044281610428565b811461044c575f5ffd5b50565b5f8151905061045d81610439565b92915050565b5f819050919050565b61047581610463565b811461047f575f5ffd5b50565b5f815190506104908161046c565b92915050565b5f5f5f5f5f5f60c087890312156104b0576104af610405565b5b5f6104bd89828a0161044f565b96505060206104ce89828a01610482565b95505060406104df89828a01610482565b94505060606104f089828a01610482565b935050608061050189828a0161044f565b92505060a061051289828a01610482565b9150509295509295509295565b5f819050919050565b5f819050919050565b5f61054b6105466105418461051f565b610528565b610463565b9050919050565b61055b81610531565b82525050565b61056a81610428565b82525050565b61057981610463565b82525050565b5f60c0820190506105925f830189610552565b61059f6020830188610561565b6105ac6040830187610570565b6105b96060830186610570565b6105c66080830185610570565b6105d360a0830184610570565b979650505050505050565b6123f6806105eb5f395ff3fe608060405260043610610184575f3560e01c80637fcf8ac9116100d0578063a0442c5711610089578063c290d69111610063578063c290d6911461057d578063c3211857146105a5578063cbd9cd57146105e1578063f2fde38b1461060b5761018b565b8063a0442c57146104ed578063a18f9aec14610529578063b0750611146105535761018b565b80637fcf8ac9146103d157806380a3d609146103f957806381ede6cd1461042157806389e99a3b1461045d5780638da5cb5b146104995780639757b970146104c35761018b565b806332ae6ceb1161013d57806348524e951161011757806348524e951461033f5780636c086880146103675780636d2eea6e146103915780637a90b990146103bb5761018b565b806332ae6ceb146102c157806333d608f1146102eb5780634210a244146103155761018b565b80630d152c2c1461018f5780631f1e9018146101b75780631fdc926c146101f557806321b76c921461021f5780632b7e8bcf146102495780633193dcdc146102855761018b565b3661018b57005b5f5ffd5b34801561019a575f5ffd5b506101b560048036038101906101b09190611848565b610633565b005b3480156101c2575f5ffd5b506101dd60048036038101906101d8919061192e565b610cd0565b6040516101ec93929190611984565b60405180910390f35b348015610200575f5ffd5b50610209610def565b60405161021691906119c8565b60405180910390f35b34801561022a575f5ffd5b50610233610e14565b60405161024091906119e1565b60405180910390f35b348015610254575f5ffd5b5061026f600480360381019061026a919061192e565b610e1a565b60405161027c9190611a14565b60405180910390f35b348015610290575f5ffd5b506102ab60048036038101906102a69190611a2d565b610f7d565b6040516102b891906119e1565b60405180910390f35b3480156102cc575f5ffd5b506102d5610f92565b6040516102e291906119e1565b60405180910390f35b3480156102f6575f5ffd5b506102ff610f98565b60405161030c9190611a7a565b60405180910390f35b348015610320575f5ffd5b50610329610f9f565b60405161033691906119e1565b60405180910390f35b34801561034a575f5ffd5b5061036560048036038101906103609190611af0565b610fa5565b005b348015610372575f5ffd5b5061037b6110c5565b60405161038891906119e1565b60405180910390f35b34801561039c575f5ffd5b506103a56110e9565b6040516103b291906119e1565b60405180910390f35b3480156103c6575f5ffd5b506103cf6110ef565b005b3480156103dc575f5ffd5b506103f760048036038101906103f29190611a2d565b6111b7565b005b348015610404575f5ffd5b5061041f600480360381019061041a9190611b40565b6112e5565b005b34801561042c575f5ffd5b5061044760048036038101906104429190611a2d565b611462565b60405161045491906119e1565b60405180910390f35b348015610468575f5ffd5b50610483600480360381019061047e9190611a2d565b611477565b60405161049091906119e1565b60405180910390f35b3480156104a4575f5ffd5b506104ad61148c565b6040516104ba91906119c8565b60405180910390f35b3480156104ce575f5ffd5b506104d76114b1565b6040516104e491906119e1565b60405180910390f35b3480156104f8575f5ffd5b50610513600480360381019061050e9190611a2d565b6114b7565b60405161052091906119e1565b60405180910390f35b348015610534575f5ffd5b5061053d6114cc565b60405161054a91906119c8565b60405180910390f35b34801561055e575f5ffd5b506105676114f1565b60405161057491906119e1565b60405180910390f35b348015610588575f5ffd5b506105a3600480360381019061059e9190611b7e565b6114f7565b005b3480156105b0575f5ffd5b506105cb60048036038101906105c69190611a2d565b61158d565b6040516105d891906119e1565b60405180910390f35b3480156105ec575f5ffd5b506105f56115a2565b6040516106029190611bb8565b60405180910390f35b348015610616575f5ffd5b50610631600480360381019061062c9190611a2d565b6115a8565b005b60025f9054906101000a900460ff16610681576040517f08c379a000000000000000000000000000000000000000000000000000000000815260040161067890611c2b565b60405180910390fd5b5f5f5f838060c001906106949190611c55565b8101906106a19190611d85565b509550509450505092505f5f84600f0b126106ce57836fffffffffffffffffffffffffffffffff166106eb565b836106d890611e4f565b6fffffffffffffffffffffffffffffffff165b90505f8560200160208101906107019190611a2d565b90505f865f013590505f600b5f8473ffffffffffffffffffffffffffffffffffffffff1673ffffffffffffffffffffffffffffffffffffffff1681526020019081526020015f2054036107d85780600b5f8473ffffffffffffffffffffffffffffffffffffffff1673ffffffffffffffffffffffffffffffffffffffff1681526020019081526020015f20819055508362ffffff16600c5f8473ffffffffffffffffffffffffffffffffffffffff1673ffffffffffffffffffffffffffffffffffffffff1681526020019081526020015f20819055505b5f600e5f9054906101000a900473ffffffffffffffffffffffffffffffffffffffff1673ffffffffffffffffffffffffffffffffffffffff168373ffffffffffffffffffffffffffffffffffffffff16148015610836575060055482145b90508015610872578360105f82825461084f9190611e95565b9250508190555060115f81548092919061086890611ec8565b9190505550610918565b8360095f8573ffffffffffffffffffffffffffffffffffffffff1673ffffffffffffffffffffffffffffffffffffffff1681526020019081526020015f205f8282546108be9190611e95565b92505081905550600a5f8473ffffffffffffffffffffffffffffffffffffffff1673ffffffffffffffffffffffffffffffffffffffff1681526020019081526020015f205f81548092919061091290611ec8565b91905055505b5f6001876fffffffffffffffffffffffffffffffff166109389190611e95565b600c5f8673ffffffffffffffffffffffffffffffffffffffff1673ffffffffffffffffffffffffffffffffffffffff1681526020019081526020015f205460095f8773ffffffffffffffffffffffffffffffffffffffff1673ffffffffffffffffffffffffffffffffffffffff1681526020019081526020015f20546109be9190611f0f565b6109c89190611f7d565b90505f6001886fffffffffffffffffffffffffffffffff166109ea9190611e95565b600f546010546109fa9190611f0f565b610a049190611f7d565b905081600d5f8773ffffffffffffffffffffffffffffffffffffffff1673ffffffffffffffffffffffffffffffffffffffff1681526020019081526020015f20819055508473ffffffffffffffffffffffffffffffffffffffff16847f844a56e166a55860befcad4b9589b5ac009e467b5e3c96786ad8a1bf9ce6476c8885604051610a91929190611fad565b60405180910390a382158015610aa657505f82115b8015610ab157505f81115b8015610afb57506003600a5f8773ffffffffffffffffffffffffffffffffffffffff1673ffffffffffffffffffffffffffffffffffffffff1681526020019081526020015f205410155b8015610b2157506006548161271084610b149190611f0f565b610b1e9190611f7d565b10155b15610cc4578473ffffffffffffffffffffffffffffffffffffffff16847f36be962a7185c5c74a3f57651f56f012e66d44dd5e39b27c03739750e308e11f8484604051610b6f929190611fad565b60405180910390a35f848684604051602001610b8d93929190611fd4565b60405160208183030381529060405290505f5f87600a8c610bae9190612009565b84604051602401610bc294939291906120b8565b6040516020818303038152906040527f8e959634000000000000000000000000000000000000000000000000000000007bffffffffffffffffffffffffffffffffffffffffffffffffffffffff19166020820180517bffffffffffffffffffffffffffffffffffffffffffffffffffffffff838183161783525050505090506207a12067ffffffffffffffff1660045f9054906101000a900473ffffffffffffffffffffffffffffffffffffffff1673ffffffffffffffffffffffffffffffffffffffff166005547f8dd725fa9d6cd150017ab9e60318d40616439424e2fade9c1c58854950917dfc84604051610cb99190612102565b60405180910390a450505b50505050505050505050565b5f5f5f6001846fffffffffffffffffffffffffffffffff16610cf29190611e95565b600c5f8773ffffffffffffffffffffffffffffffffffffffff1673ffffffffffffffffffffffffffffffffffffffff1681526020019081526020015f205460095f8873ffffffffffffffffffffffffffffffffffffffff1673ffffffffffffffffffffffffffffffffffffffff1681526020019081526020015f2054610d789190611f0f565b610d829190611f7d565b92506001846fffffffffffffffffffffffffffffffff16610da39190611e95565b600f54601054610db39190611f0f565b610dbd9190611f7d565b91505f8211610dcc575f610de6565b8161271084610ddb9190611f0f565b610de59190611f7d565b5b90509250925092565b60045f9054906101000a900473ffffffffffffffffffffffffffffffffffffffff1681565b60105481565b5f5f5f3073ffffffffffffffffffffffffffffffffffffffff16631f1e901886866040518363ffffffff1660e01b8152600401610e58929190612122565b606060405180830381865afa158015610e73573d5f5f3e3d5ffd5b505050506040513d601f19601f82011682018060405250810190610e97919061215d565b5091509150600e5f9054906101000a900473ffffffffffffffffffffffffffffffffffffffff1673ffffffffffffffffffffffffffffffffffffffff168573ffffffffffffffffffffffffffffffffffffffff1614158015610ef857505f82115b8015610f0357505f81115b8015610f4d57506003600a5f8773ffffffffffffffffffffffffffffffffffffffff1673ffffffffffffffffffffffffffffffffffffffff1681526020019081526020015f205410155b8015610f7357506006548161271084610f669190611f0f565b610f709190611f7d565b10155b9250505092915050565b600a602052805f5260405f205f915090505481565b60065481565b6207a12081565b600f5481565b60035f9054906101000a900473ffffffffffffffffffffffffffffffffffffffff1673ffffffffffffffffffffffffffffffffffffffff163373ffffffffffffffffffffffffffffffffffffffff161461102b576040517f82b4290000000000000000000000000000000000000000000000000000000000815260040160405180910390fd5b5f8314806110395750606482115b15611070576040517fe523909000000000000000000000000000000000000000000000000000000000815260040160405180910390fd5b8260068190555081600781905550806008819055507fb783f03f2b7bef8b4ef88fb47c4e0afe25cf4f437c229fc94cf6a7352b715eac8383836040516110b8939291906121ad565b60405180910390a1505050565b7f40e9cecb9f5f1f1c5b9c97dec2917b7ee92e57ba5563708daca2ac007aab8be081565b60075481565b5f5f5f9054906101000a900473ffffffffffffffffffffffffffffffffffffffff1673ffffffffffffffffffffffffffffffffffffffff16639b6c56ec306040518263ffffffff1660e01b815260040161114991906119c8565b602060405180830381865afa158015611164573d5f5f3e3d5ffd5b505050506040513d601f19601f8201168201806040525081019061118891906121e2565b90506111b45f5f9054906101000a900473ffffffffffffffffffffffffffffffffffffffff16826116d6565b50565b60035f9054906101000a900473ffffffffffffffffffffffffffffffffffffffff1673ffffffffffffffffffffffffffffffffffffffff163373ffffffffffffffffffffffffffffffffffffffff161461123d576040517f82b4290000000000000000000000000000000000000000000000000000000000815260040160405180910390fd5b5f73ffffffffffffffffffffffffffffffffffffffff168173ffffffffffffffffffffffffffffffffffffffff16036112a2576040517fd92e233d00000000000000000000000000000000000000000000000000000000815260040160405180910390fd5b8060045f6101000a81548173ffffffffffffffffffffffffffffffffffffffff021916908373ffffffffffffffffffffffffffffffffffffffff16021790555050565b60035f9054906101000a900473ffffffffffffffffffffffffffffffffffffffff1673ffffffffffffffffffffffffffffffffffffffff163373ffffffffffffffffffffffffffffffffffffffff161461136b576040517f82b4290000000000000000000000000000000000000000000000000000000000815260040160405180910390fd5b5f73ffffffffffffffffffffffffffffffffffffffff168273ffffffffffffffffffffffffffffffffffffffff16036113d0576040517fd92e233d00000000000000000000000000000000000000000000000000000000815260040160405180910390fd5b81600e5f6101000a81548173ffffffffffffffffffffffffffffffffffffffff021916908373ffffffffffffffffffffffffffffffffffffffff16021790555080600f819055505f6010819055505f6011819055507fa8db8be35fdd65f6c89b4c4d860bc5941016c0d3684505d9077b6c59ff7d195f828260405161145692919061220d565b60405180910390a15050565b600b602052805f5260405f205f915090505481565b600c602052805f5260405f205f915090505481565b60035f9054906101000a900473ffffffffffffffffffffffffffffffffffffffff1681565b60115481565b600d602052805f5260405f205f915090505481565b600e5f9054906101000a900473ffffffffffffffffffffffffffffffffffffffff1681565b60055481565b60015f3373ffffffffffffffffffffffffffffffffffffffff1673ffffffffffffffffffffffffffffffffffffffff1681526020019081526020015f205f9054906101000a900460ff16611580576040517f08c379a00000000000000000000000000000000000000000000000000000000081526004016115779061227e565b60405180910390fd5b61158a33826116d6565b50565b6009602052805f5260405f205f915090505481565b60085481565b60035f9054906101000a900473ffffffffffffffffffffffffffffffffffffffff1673ffffffffffffffffffffffffffffffffffffffff163373ffffffffffffffffffffffffffffffffffffffff161461162e576040517f82b4290000000000000000000000000000000000000000000000000000000000815260040160405180910390fd5b5f73ffffffffffffffffffffffffffffffffffffffff168173ffffffffffffffffffffffffffffffffffffffff1603611693576040517fd92e233d00000000000000000000000000000000000000000000000000000000815260040160405180910390fd5b8060035f6101000a81548173ffffffffffffffffffffffffffffffffffffffff021916908373ffffffffffffffffffffffffffffffffffffffff16021790555050565b80471015611719576040517f08c379a0000000000000000000000000000000000000000000000000000000008152600401611710906122e6565b60405180910390fd5b5f811115611819575f8273ffffffffffffffffffffffffffffffffffffffff16825f67ffffffffffffffff81111561175457611753612304565b5b6040519080825280601f01601f1916602001820160405280156117865781602001600182028036833780820191505090505b50604051611794919061236b565b5f6040518083038185875af1925050503d805f81146117ce576040519150601f19603f3d011682016040523d82523d5f602084013e6117d3565b606091505b5050905080611817576040517f08c379a000000000000000000000000000000000000000000000000000000000815260040161180e906123cb565b60405180910390fd5b505b5050565b5f5ffd5b5f5ffd5b5f5ffd5b5f610180828403121561183f5761183e611825565b5b81905092915050565b5f6020828403121561185d5761185c61181d565b5b5f82013567ffffffffffffffff81111561187a57611879611821565b5b61188684828501611829565b91505092915050565b5f73ffffffffffffffffffffffffffffffffffffffff82169050919050565b5f6118b88261188f565b9050919050565b6118c8816118ae565b81146118d2575f5ffd5b50565b5f813590506118e3816118bf565b92915050565b5f6fffffffffffffffffffffffffffffffff82169050919050565b61190d816118e9565b8114611917575f5ffd5b50565b5f8135905061192881611904565b92915050565b5f5f604083850312156119445761194361181d565b5b5f611951858286016118d5565b92505060206119628582860161191a565b9150509250929050565b5f819050919050565b61197e8161196c565b82525050565b5f6060820190506119975f830186611975565b6119a46020830185611975565b6119b16040830184611975565b949350505050565b6119c2816118ae565b82525050565b5f6020820190506119db5f8301846119b9565b92915050565b5f6020820190506119f45f830184611975565b92915050565b5f8115159050919050565b611a0e816119fa565b82525050565b5f602082019050611a275f830184611a05565b92915050565b5f60208284031215611a4257611a4161181d565b5b5f611a4f848285016118d5565b91505092915050565b5f67ffffffffffffffff82169050919050565b611a7481611a58565b82525050565b5f602082019050611a8d5f830184611a6b565b92915050565b611a9c8161196c565b8114611aa6575f5ffd5b50565b5f81359050611ab781611a93565b92915050565b5f819050919050565b611acf81611abd565b8114611ad9575f5ffd5b50565b5f81359050611aea81611ac6565b92915050565b5f5f5f60608486031215611b0757611b0661181d565b5b5f611b1486828701611aa9565b9350506020611b2586828701611aa9565b9250506040611b3686828701611adc565b9150509250925092565b5f5f60408385031215611b5657611b5561181d565b5b5f611b63858286016118d5565b9250506020611b7485828601611aa9565b9150509250929050565b5f60208284031215611b9357611b9261181d565b5b5f611ba084828501611aa9565b91505092915050565b611bb281611abd565b82525050565b5f602082019050611bcb5f830184611ba9565b92915050565b5f82825260208201905092915050565b7f564d206f6e6c79000000000000000000000000000000000000000000000000005f82015250565b5f611c15600783611bd1565b9150611c2082611be1565b602082019050919050565b5f6020820190508181035f830152611c4281611c09565b9050919050565b5f5ffd5b5f5ffd5b5f5ffd5b5f5f83356001602003843603038112611c7157611c70611c49565b5b80840192508235915067ffffffffffffffff821115611c9357611c92611c4d565b5b602083019250600182023603831315611caf57611cae611c51565b5b509250929050565b5f81600f0b9050919050565b611ccc81611cb7565b8114611cd6575f5ffd5b50565b5f81359050611ce781611cc3565b92915050565b611cf68161188f565b8114611d00575f5ffd5b50565b5f81359050611d1181611ced565b92915050565b5f8160020b9050919050565b611d2c81611d17565b8114611d36575f5ffd5b50565b5f81359050611d4781611d23565b92915050565b5f62ffffff82169050919050565b611d6481611d4d565b8114611d6e575f5ffd5b50565b5f81359050611d7f81611d5b565b92915050565b5f5f5f5f5f5f5f60e0888a031215611da057611d9f61181d565b5b5f611dad8a828b01611cd9565b9750506020611dbe8a828b01611cd9565b9650506040611dcf8a828b01611d03565b9550506060611de08a828b0161191a565b9450506080611df18a828b01611d39565b93505060a0611e028a828b01611d71565b92505060c0611e138a828b01611aa9565b91505092959891949750929550565b7f4e487b71000000000000000000000000000000000000000000000000000000005f52601160045260245ffd5b5f611e5982611cb7565b91507fffffffffffffffffffffffffffffffff800000000000000000000000000000008203611e8b57611e8a611e22565b5b815f039050919050565b5f611e9f8261196c565b9150611eaa8361196c565b9250828201905080821115611ec257611ec1611e22565b5b92915050565b5f611ed28261196c565b91507fffffffffffffffffffffffffffffffffffffffffffffffffffffffffffffffff8203611f0457611f03611e22565b5b600182019050919050565b5f611f198261196c565b9150611f248361196c565b9250828202611f328161196c565b91508282048414831517611f4957611f48611e22565b5b5092915050565b7f4e487b71000000000000000000000000000000000000000000000000000000005f52601260045260245ffd5b5f611f878261196c565b9150611f928361196c565b925082611fa257611fa1611f50565b5b828204905092915050565b5f604082019050611fc05f830185611975565b611fcd6020830184611975565b9392505050565b5f606082019050611fe75f830186611975565b611ff460208301856119b9565b6120016040830184611975565b949350505050565b5f612013826118e9565b915061201e836118e9565b92508261202e5761202d611f50565b5b828204905092915050565b612042816118e9565b82525050565b5f81519050919050565b5f82825260208201905092915050565b8281835e5f83830152505050565b5f601f19601f8301169050919050565b5f61208a82612048565b6120948185612052565b93506120a4818560208601612062565b6120ad81612070565b840191505092915050565b5f6080820190506120cb5f8301876119b9565b6120d860208301866119b9565b6120e56040830185612039565b81810360608301526120f78184612080565b905095945050505050565b5f6020820190508181035f83015261211a8184612080565b905092915050565b5f6040820190506121355f8301856119b9565b6121426020830184612039565b9392505050565b5f8151905061215781611a93565b92915050565b5f5f5f606084860312156121745761217361181d565b5b5f61218186828701612149565b935050602061219286828701612149565b92505060406121a386828701612149565b9150509250925092565b5f6060820190506121c05f830186611975565b6121cd6020830185611975565b6121da6040830184611ba9565b949350505050565b5f602082840312156121f7576121f661181d565b5b5f61220484828501612149565b91505092915050565b5f6040820190506122205f8301856119b9565b61222d6020830184611975565b9392505050565b7f417574686f72697a65642073656e646572206f6e6c79000000000000000000005f82015250565b5f612268601683611bd1565b915061227382612234565b602082019050919050565b5f6020820190508181035f8301526122958161225c565b9050919050565b7f496e73756666696369656e742066756e647300000000000000000000000000005f82015250565b5f6122d0601283611bd1565b91506122db8261229c565b602082019050919050565b5f6020820190508181035f8301526122fd816122c4565b9050919050565b7f4e487b71000000000000000000000000000000000000000000000000000000005f52604160045260245ffd5b5f81905092915050565b5f61234582612048565b61234f8185612331565b935061235f818560208601612062565b80840191505092915050565b5f612376828461233b565b915081905092915050565b7f5472616e73666572206661696c656400000000000000000000000000000000005f82015250565b5f6123b5600f83611bd1565b91506123c082612381565b602082019050919050565b5f6020820190508181035f8301526123e2816123a9565b905091905056fea164736f6c634300081e000a","linkReferences":{}},"methodIdentifiers":{"CALLBACK_GAS_LIMIT()":"33d608f1","UNISWAP_V4_SWAP_TOPIC_0()":"6c086880","aiModelHash()":"cbd9cd57","coverDebt()":"7a90b990","cumulativeVolume(address)":"c3211857","destinationChainId()":"b0750611","kineticCallback()":"1fdc926c","lastYieldVelocity(address)":"a0442c57","localCumulativeVolume()":"21b76c92","localPool()":"a18f9aec","localPoolFee()":"4210a244","localSwapCount()":"9757b970","minConfidenceScore()":"6d2eea6e","owner()":"8da5cb5b","pay(uint256)":"c290d691","poolChainId(address)":"81ede6cd","poolFee(address)":"89e99a3b","react((uint256,address,uint256,uint256,uint256,uint256,bytes,uint256,uint256,uint256,uint256,uint256))":"0d152c2c","swapCount(address)":"3193dcdc","transferOwnership(address)":"f2fde38b","updateKineticCallback(address)":"7fcf8ac9","updateLocalPool(address,uint256)":"80a3d609","updateStrategy(uint256,uint256,bytes32)":"48524e95","wouldTriggerRebalance(address,uint128)":"2b7e8bcf","yieldThreshold()":"32ae6ceb","yieldVelocityComparison(address,uint128)":"1f1e9018"},"id":28}